{
  "contractName": "EthDomainResolver",
  "abi": [
    {
      "inputs": [
        {
          "internalType": "address",
          "name": "_resolverAddress",
          "type": "address"
        }
      ],
      "stateMutability": "nonpayable",
      "type": "constructor"
    },
    {
      "inputs": [],
      "name": "resolver",
      "outputs": [
        {
          "internalType": "contract PublicResolver",
          "name": "",
          "type": "address"
        }
      ],
      "stateMutability": "view",
      "type": "function"
    },
    {
      "inputs": [
        {
          "internalType": "string",
          "name": "domain",
          "type": "string"
        }
      ],
      "name": "resolveAddressFromDomain",
      "outputs": [
        {
          "internalType": "address",
          "name": "",
          "type": "address"
        }
      ],
      "stateMutability": "view",
      "type": "function"
    },
    {
      "inputs": [
        {
          "internalType": "string",
          "name": "name",
          "type": "string"
        }
      ],
      "name": "getNode",
      "outputs": [
        {
          "internalType": "bytes32",
          "name": "",
          "type": "bytes32"
        }
      ],
      "stateMutability": "pure",
      "type": "function"
    },
    {
      "inputs": [
        {
          "internalType": "string",
          "name": "name",
          "type": "string"
        }
      ],
      "name": "namehash",
      "outputs": [
        {
          "internalType": "bytes32",
          "name": "",
          "type": "bytes32"
        }
      ],
      "stateMutability": "pure",
      "type": "function"
    }
  ],
  "bytecode": "0x608060405234801561001057600080fd5b50604051610a22380380610a22833981810160405281019061003291906100db565b806000806101000a81548173ffffffffffffffffffffffffffffffffffffffff021916908373ffffffffffffffffffffffffffffffffffffffff16021790555050610108565b600080fd5b600073ffffffffffffffffffffffffffffffffffffffff82169050919050565b60006100a88261007d565b9050919050565b6100b88161009d565b81146100c357600080fd5b50565b6000815190506100d5816100af565b92915050565b6000602082840312156100f1576100f0610078565b5b60006100ff848285016100c6565b91505092915050565b61090b806101176000396000f3fe608060405234801561001057600080fd5b506004361061004c5760003560e01c806304f3bcec14610051578063098799621461006f57806375289ddf1461009f5780639428522a146100cf575b600080fd5b6100596100ff565b6040516100669190610402565b60405180910390f35b61008960048036038101906100849190610577565b610123565b60405161009691906105d9565b60405180910390f35b6100b960048036038101906100b49190610577565b610209565b6040516100c69190610615565b60405180910390f35b6100e960048036038101906100e49190610577565b610303565b6040516100f691906105d9565b60405180910390f35b60008054906101000a900473ffffffffffffffffffffffffffffffffffffffff1681565b6000806000801b90506000835103610141576000801b915050610204565b600083905060008151905060005b8160ff168160ff1610156101c15783838260ff168151811061017457610173610630565b5b602001015160f81c60f81b6040516020016101909291906106cd565b6040516020818303038152906040528051906020012060001c60001b935080806101b990610735565b91505061014f565b50600063deadbeef60001b905083816040516020016101e192919061075e565b6040516020818303038152906040528051906020012060001c60001b9450505050505b919050565b60008061021583610303565b905060008060009054906101000a900473ffffffffffffffffffffffffffffffffffffffff1673ffffffffffffffffffffffffffffffffffffffff16633b3b57de836040518263ffffffff1660e01b815260040161027391906105d9565b602060405180830381865afa158015610290573d6000803e3d6000fd5b505050506040513d601f19601f820116820180604052508101906102b491906107c8565b90506000816040516020016102c9919061083d565b604051602081830303815290604052905060008151036102ef57600093505050506102fe565b6102f881610315565b93505050505b919050565b600061030e82610123565b9050919050565b60006103208261032a565b60601c9050919050565b6000601482511015610371576040517f08c379a0000000000000000000000000000000000000000000000000000000008152600401610368906108b5565b60405180910390fd5b60006014830151905080915050919050565b600073ffffffffffffffffffffffffffffffffffffffff82169050919050565b6000819050919050565b60006103c86103c36103be84610383565b6103a3565b610383565b9050919050565b60006103da826103ad565b9050919050565b60006103ec826103cf565b9050919050565b6103fc816103e1565b82525050565b600060208201905061041760008301846103f3565b92915050565b6000604051905090565b600080fd5b600080fd5b600080fd5b600080fd5b6000601f19601f8301169050919050565b7f4e487b7100000000000000000000000000000000000000000000000000000000600052604160045260246000fd5b6104848261043b565b810181811067ffffffffffffffff821117156104a3576104a261044c565b5b80604052505050565b60006104b661041d565b90506104c2828261047b565b919050565b600067ffffffffffffffff8211156104e2576104e161044c565b5b6104eb8261043b565b9050602081019050919050565b82818337600083830152505050565b600061051a610515846104c7565b6104ac565b90508281526020810184848401111561053657610535610436565b5b6105418482856104f8565b509392505050565b600082601f83011261055e5761055d610431565b5b813561056e848260208601610507565b91505092915050565b60006020828403121561058d5761058c610427565b5b600082013567ffffffffffffffff8111156105ab576105aa61042c565b5b6105b784828501610549565b91505092915050565b6000819050919050565b6105d3816105c0565b82525050565b60006020820190506105ee60008301846105ca565b92915050565b60006105ff82610383565b9050919050565b61060f816105f4565b82525050565b600060208201905061062a6000830184610606565b92915050565b7f4e487b7100000000000000000000000000000000000000000000000000000000600052603260045260246000fd5b6000819050919050565b61067a610675826105c0565b61065f565b82525050565b60007fff0000000000000000000000000000000000000000000000000000000000000082169050919050565b6000819050919050565b6106c76106c282610680565b6106ac565b82525050565b60006106d98285610669565b6020820191506106e982846106b6565b6001820191508190509392505050565b7f4e487b7100000000000000000000000000000000000000000000000000000000600052601160045260246000fd5b600060ff82169050919050565b600061074082610728565b915060ff8203610753576107526106f9565b5b600182019050919050565b600061076a8285610669565b60208201915061077a8284610669565b6020820191508190509392505050565b600061079582610383565b9050919050565b6107a58161078a565b81146107b057600080fd5b50565b6000815190506107c28161079c565b92915050565b6000602082840312156107de576107dd610427565b5b60006107ec848285016107b3565b91505092915050565b60008160601b9050919050565b600061080d826107f5565b9050919050565b600061081f82610802565b9050919050565b6108376108328261078a565b610814565b82525050565b60006108498284610826565b60148201915081905092915050565b600082825260208201905092915050565b7f496e70757420746f6f2073686f72740000000000000000000000000000000000600082015250565b600061089f600f83610858565b91506108aa82610869565b602082019050919050565b600060208201905081810360008301526108ce81610892565b905091905056fea264697066735822122004bfab58552c621a1fa6c849b4bc4b70b90fa3acaadc19ab4cdf4e75cad394c464736f6c63430008110033",
  "immutableReferences": {},
  "source": "// SPDX-License-Identifier: MIT\npragma solidity ^0.8.17;\n\nimport \"@ensdomains/ens-contracts/contracts/resolvers/PublicResolver.sol\";\n\ncontract EthDomainResolver {\n    using BytesUtils for bytes;\n\n    PublicResolver public resolver;\n\n    constructor(address _resolverAddress) {\n        resolver = PublicResolver(_resolverAddress);\n    }\n\n    function resolveAddressFromDomain(\n        string memory domain\n    ) public view returns (address) {\n        bytes32 node = getNode(domain);\n        address payable addrPayable = resolver.addr(node);\n        bytes memory addr = abi.encodePacked(addrPayable);\n        if (addr.length == 0) {\n            return address(0);\n        } else {\n            return address(bytesToAddress(addr));\n        }\n    }\n\n    function bytesToAddress(bytes memory b) private pure returns (address) {\n        return address(bytesToBytes20(b));\n    }\n\n    function bytesToBytes20(bytes memory b) private pure returns (bytes20) {\n        require(b.length >= 20, \"Input too short\");\n        bytes20 result;\n        assembly {\n            result := mload(add(b, 20))\n        }\n        return result;\n    }\n\n    function getNode(string memory name) public pure returns (bytes32) {\n        return namehash(name);\n    }\n\n    function namehash(string memory name) public pure returns (bytes32) {\n        bytes32 node = 0x0000000000000000000000000000000000000000000000000000000000000000;\n        if (bytes(name).length == 0) {\n            return\n                0x0000000000000000000000000000000000000000000000000000000000000000;\n        } else {\n            bytes memory nameBytes = bytes(name);\n            uint8 len = uint8(nameBytes.length);\n            for (uint8 i = 0; i < len; i++) {\n                node = bytes32(\n                    uint256(\n                        keccak256(abi.encodePacked(node, bytes1(nameBytes[i])))\n                    )\n                );\n            }\n            bytes32 parent = 0x00000000000000000000000000000000000000000000000000000000deadbeef;\n            return bytes32(uint256(keccak256(abi.encodePacked(node, parent))));\n        }\n    }\n}\n",
  "sourcePath": "/home/italo/code/projects/blockchain/repo-test-hackathon-blockchain/contracts/Solver.sol",
  "compiler": {
    "name": "solc",
    "version": "0.8.17+commit.8df45f5f.Emscripten.clang"
  },
  "schemaVersion": "3.4.16",
  "updatedAt": "2024-05-17T15:51:42.539Z",
  "devdoc": {
    "kind": "dev",
    "methods": {},
    "version": 1
  },
  "userdoc": {
    "kind": "user",
    "methods": {},
    "version": 1
  }
}