{
  "contractName": "PublicResolver",
  "abi": [
    {
      "inputs": [
        {
          "internalType": "contract ENS",
          "name": "_ens",
          "type": "address"
        },
        {
          "internalType": "contract INameWrapper",
          "name": "wrapperAddress",
          "type": "address"
        },
        {
          "internalType": "address",
          "name": "_trustedETHController",
          "type": "address"
        },
        {
          "internalType": "address",
          "name": "_trustedReverseRegistrar",
          "type": "address"
        }
      ],
      "stateMutability": "nonpayable",
      "type": "constructor"
    },
    {
      "anonymous": false,
      "inputs": [
        {
          "indexed": true,
          "internalType": "bytes32",
          "name": "node",
          "type": "bytes32"
        },
        {
          "indexed": true,
          "internalType": "uint256",
          "name": "contentType",
          "type": "uint256"
        }
      ],
      "name": "ABIChanged",
      "type": "event"
    },
    {
      "anonymous": false,
      "inputs": [
        {
          "indexed": true,
          "internalType": "bytes32",
          "name": "node",
          "type": "bytes32"
        },
        {
          "indexed": false,
          "internalType": "address",
          "name": "a",
          "type": "address"
        }
      ],
      "name": "AddrChanged",
      "type": "event"
    },
    {
      "anonymous": false,
      "inputs": [
        {
          "indexed": true,
          "internalType": "bytes32",
          "name": "node",
          "type": "bytes32"
        },
        {
          "indexed": false,
          "internalType": "uint256",
          "name": "coinType",
          "type": "uint256"
        },
        {
          "indexed": false,
          "internalType": "bytes",
          "name": "newAddress",
          "type": "bytes"
        }
      ],
      "name": "AddressChanged",
      "type": "event"
    },
    {
      "anonymous": false,
      "inputs": [
        {
          "indexed": true,
          "internalType": "address",
          "name": "owner",
          "type": "address"
        },
        {
          "indexed": true,
          "internalType": "address",
          "name": "operator",
          "type": "address"
        },
        {
          "indexed": false,
          "internalType": "bool",
          "name": "approved",
          "type": "bool"
        }
      ],
      "name": "ApprovalForAll",
      "type": "event"
    },
    {
      "anonymous": false,
      "inputs": [
        {
          "indexed": false,
          "internalType": "address",
          "name": "owner",
          "type": "address"
        },
        {
          "indexed": true,
          "internalType": "bytes32",
          "name": "node",
          "type": "bytes32"
        },
        {
          "indexed": true,
          "internalType": "address",
          "name": "delegate",
          "type": "address"
        },
        {
          "indexed": true,
          "internalType": "bool",
          "name": "approved",
          "type": "bool"
        }
      ],
      "name": "Approved",
      "type": "event"
    },
    {
      "anonymous": false,
      "inputs": [
        {
          "indexed": true,
          "internalType": "bytes32",
          "name": "node",
          "type": "bytes32"
        },
        {
          "indexed": false,
          "internalType": "bytes",
          "name": "hash",
          "type": "bytes"
        }
      ],
      "name": "ContenthashChanged",
      "type": "event"
    },
    {
      "anonymous": false,
      "inputs": [
        {
          "indexed": true,
          "internalType": "bytes32",
          "name": "node",
          "type": "bytes32"
        },
        {
          "indexed": false,
          "internalType": "bytes",
          "name": "name",
          "type": "bytes"
        },
        {
          "indexed": false,
          "internalType": "uint16",
          "name": "resource",
          "type": "uint16"
        },
        {
          "indexed": false,
          "internalType": "bytes",
          "name": "record",
          "type": "bytes"
        }
      ],
      "name": "DNSRecordChanged",
      "type": "event"
    },
    {
      "anonymous": false,
      "inputs": [
        {
          "indexed": true,
          "internalType": "bytes32",
          "name": "node",
          "type": "bytes32"
        },
        {
          "indexed": false,
          "internalType": "bytes",
          "name": "name",
          "type": "bytes"
        },
        {
          "indexed": false,
          "internalType": "uint16",
          "name": "resource",
          "type": "uint16"
        }
      ],
      "name": "DNSRecordDeleted",
      "type": "event"
    },
    {
      "anonymous": false,
      "inputs": [
        {
          "indexed": true,
          "internalType": "bytes32",
          "name": "node",
          "type": "bytes32"
        },
        {
          "indexed": false,
          "internalType": "bytes",
          "name": "lastzonehash",
          "type": "bytes"
        },
        {
          "indexed": false,
          "internalType": "bytes",
          "name": "zonehash",
          "type": "bytes"
        }
      ],
      "name": "DNSZonehashChanged",
      "type": "event"
    },
    {
      "anonymous": false,
      "inputs": [
        {
          "indexed": true,
          "internalType": "bytes32",
          "name": "node",
          "type": "bytes32"
        },
        {
          "indexed": true,
          "internalType": "bytes4",
          "name": "interfaceID",
          "type": "bytes4"
        },
        {
          "indexed": false,
          "internalType": "address",
          "name": "implementer",
          "type": "address"
        }
      ],
      "name": "InterfaceChanged",
      "type": "event"
    },
    {
      "anonymous": false,
      "inputs": [
        {
          "indexed": true,
          "internalType": "bytes32",
          "name": "node",
          "type": "bytes32"
        },
        {
          "indexed": false,
          "internalType": "string",
          "name": "name",
          "type": "string"
        }
      ],
      "name": "NameChanged",
      "type": "event"
    },
    {
      "anonymous": false,
      "inputs": [
        {
          "indexed": true,
          "internalType": "bytes32",
          "name": "node",
          "type": "bytes32"
        },
        {
          "indexed": false,
          "internalType": "bytes32",
          "name": "x",
          "type": "bytes32"
        },
        {
          "indexed": false,
          "internalType": "bytes32",
          "name": "y",
          "type": "bytes32"
        }
      ],
      "name": "PubkeyChanged",
      "type": "event"
    },
    {
      "anonymous": false,
      "inputs": [
        {
          "indexed": true,
          "internalType": "bytes32",
          "name": "node",
          "type": "bytes32"
        },
        {
          "indexed": true,
          "internalType": "string",
          "name": "indexedKey",
          "type": "string"
        },
        {
          "indexed": false,
          "internalType": "string",
          "name": "key",
          "type": "string"
        },
        {
          "indexed": false,
          "internalType": "string",
          "name": "value",
          "type": "string"
        }
      ],
      "name": "TextChanged",
      "type": "event"
    },
    {
      "anonymous": false,
      "inputs": [
        {
          "indexed": true,
          "internalType": "bytes32",
          "name": "node",
          "type": "bytes32"
        },
        {
          "indexed": false,
          "internalType": "uint64",
          "name": "newVersion",
          "type": "uint64"
        }
      ],
      "name": "VersionChanged",
      "type": "event"
    },
    {
      "inputs": [
        {
          "internalType": "bytes32",
          "name": "node",
          "type": "bytes32"
        },
        {
          "internalType": "uint256",
          "name": "contentTypes",
          "type": "uint256"
        }
      ],
      "name": "ABI",
      "outputs": [
        {
          "internalType": "uint256",
          "name": "",
          "type": "uint256"
        },
        {
          "internalType": "bytes",
          "name": "",
          "type": "bytes"
        }
      ],
      "stateMutability": "view",
      "type": "function"
    },
    {
      "inputs": [
        {
          "internalType": "bytes32",
          "name": "node",
          "type": "bytes32"
        }
      ],
      "name": "addr",
      "outputs": [
        {
          "internalType": "address payable",
          "name": "",
          "type": "address"
        }
      ],
      "stateMutability": "view",
      "type": "function"
    },
    {
      "inputs": [
        {
          "internalType": "bytes32",
          "name": "node",
          "type": "bytes32"
        },
        {
          "internalType": "uint256",
          "name": "coinType",
          "type": "uint256"
        }
      ],
      "name": "addr",
      "outputs": [
        {
          "internalType": "bytes",
          "name": "",
          "type": "bytes"
        }
      ],
      "stateMutability": "view",
      "type": "function"
    },
    {
      "inputs": [
        {
          "internalType": "bytes32",
          "name": "node",
          "type": "bytes32"
        }
      ],
      "name": "clearRecords",
      "outputs": [],
      "stateMutability": "nonpayable",
      "type": "function"
    },
    {
      "inputs": [
        {
          "internalType": "bytes32",
          "name": "node",
          "type": "bytes32"
        }
      ],
      "name": "contenthash",
      "outputs": [
        {
          "internalType": "bytes",
          "name": "",
          "type": "bytes"
        }
      ],
      "stateMutability": "view",
      "type": "function"
    },
    {
      "inputs": [
        {
          "internalType": "bytes32",
          "name": "node",
          "type": "bytes32"
        },
        {
          "internalType": "bytes32",
          "name": "name",
          "type": "bytes32"
        },
        {
          "internalType": "uint16",
          "name": "resource",
          "type": "uint16"
        }
      ],
      "name": "dnsRecord",
      "outputs": [
        {
          "internalType": "bytes",
          "name": "",
          "type": "bytes"
        }
      ],
      "stateMutability": "view",
      "type": "function"
    },
    {
      "inputs": [
        {
          "internalType": "bytes32",
          "name": "node",
          "type": "bytes32"
        },
        {
          "internalType": "bytes32",
          "name": "name",
          "type": "bytes32"
        }
      ],
      "name": "hasDNSRecords",
      "outputs": [
        {
          "internalType": "bool",
          "name": "",
          "type": "bool"
        }
      ],
      "stateMutability": "view",
      "type": "function"
    },
    {
      "inputs": [
        {
          "internalType": "bytes32",
          "name": "node",
          "type": "bytes32"
        },
        {
          "internalType": "bytes4",
          "name": "interfaceID",
          "type": "bytes4"
        }
      ],
      "name": "interfaceImplementer",
      "outputs": [
        {
          "internalType": "address",
          "name": "",
          "type": "address"
        }
      ],
      "stateMutability": "view",
      "type": "function"
    },
    {
      "inputs": [
        {
          "internalType": "bytes[]",
          "name": "data",
          "type": "bytes[]"
        }
      ],
      "name": "multicall",
      "outputs": [
        {
          "internalType": "bytes[]",
          "name": "results",
          "type": "bytes[]"
        }
      ],
      "stateMutability": "nonpayable",
      "type": "function"
    },
    {
      "inputs": [
        {
          "internalType": "bytes32",
          "name": "nodehash",
          "type": "bytes32"
        },
        {
          "internalType": "bytes[]",
          "name": "data",
          "type": "bytes[]"
        }
      ],
      "name": "multicallWithNodeCheck",
      "outputs": [
        {
          "internalType": "bytes[]",
          "name": "results",
          "type": "bytes[]"
        }
      ],
      "stateMutability": "nonpayable",
      "type": "function"
    },
    {
      "inputs": [
        {
          "internalType": "bytes32",
          "name": "node",
          "type": "bytes32"
        }
      ],
      "name": "name",
      "outputs": [
        {
          "internalType": "string",
          "name": "",
          "type": "string"
        }
      ],
      "stateMutability": "view",
      "type": "function"
    },
    {
      "inputs": [
        {
          "internalType": "bytes32",
          "name": "node",
          "type": "bytes32"
        }
      ],
      "name": "pubkey",
      "outputs": [
        {
          "internalType": "bytes32",
          "name": "x",
          "type": "bytes32"
        },
        {
          "internalType": "bytes32",
          "name": "y",
          "type": "bytes32"
        }
      ],
      "stateMutability": "view",
      "type": "function"
    },
    {
      "inputs": [
        {
          "internalType": "bytes32",
          "name": "",
          "type": "bytes32"
        }
      ],
      "name": "recordVersions",
      "outputs": [
        {
          "internalType": "uint64",
          "name": "",
          "type": "uint64"
        }
      ],
      "stateMutability": "view",
      "type": "function"
    },
    {
      "inputs": [
        {
          "internalType": "bytes32",
          "name": "node",
          "type": "bytes32"
        },
        {
          "internalType": "uint256",
          "name": "contentType",
          "type": "uint256"
        },
        {
          "internalType": "bytes",
          "name": "data",
          "type": "bytes"
        }
      ],
      "name": "setABI",
      "outputs": [],
      "stateMutability": "nonpayable",
      "type": "function"
    },
    {
      "inputs": [
        {
          "internalType": "bytes32",
          "name": "node",
          "type": "bytes32"
        },
        {
          "internalType": "uint256",
          "name": "coinType",
          "type": "uint256"
        },
        {
          "internalType": "bytes",
          "name": "a",
          "type": "bytes"
        }
      ],
      "name": "setAddr",
      "outputs": [],
      "stateMutability": "nonpayable",
      "type": "function"
    },
    {
      "inputs": [
        {
          "internalType": "bytes32",
          "name": "node",
          "type": "bytes32"
        },
        {
          "internalType": "address",
          "name": "a",
          "type": "address"
        }
      ],
      "name": "setAddr",
      "outputs": [],
      "stateMutability": "nonpayable",
      "type": "function"
    },
    {
      "inputs": [
        {
          "internalType": "bytes32",
          "name": "node",
          "type": "bytes32"
        },
        {
          "internalType": "bytes",
          "name": "hash",
          "type": "bytes"
        }
      ],
      "name": "setContenthash",
      "outputs": [],
      "stateMutability": "nonpayable",
      "type": "function"
    },
    {
      "inputs": [
        {
          "internalType": "bytes32",
          "name": "node",
          "type": "bytes32"
        },
        {
          "internalType": "bytes",
          "name": "data",
          "type": "bytes"
        }
      ],
      "name": "setDNSRecords",
      "outputs": [],
      "stateMutability": "nonpayable",
      "type": "function"
    },
    {
      "inputs": [
        {
          "internalType": "bytes32",
          "name": "node",
          "type": "bytes32"
        },
        {
          "internalType": "bytes4",
          "name": "interfaceID",
          "type": "bytes4"
        },
        {
          "internalType": "address",
          "name": "implementer",
          "type": "address"
        }
      ],
      "name": "setInterface",
      "outputs": [],
      "stateMutability": "nonpayable",
      "type": "function"
    },
    {
      "inputs": [
        {
          "internalType": "bytes32",
          "name": "node",
          "type": "bytes32"
        },
        {
          "internalType": "string",
          "name": "newName",
          "type": "string"
        }
      ],
      "name": "setName",
      "outputs": [],
      "stateMutability": "nonpayable",
      "type": "function"
    },
    {
      "inputs": [
        {
          "internalType": "bytes32",
          "name": "node",
          "type": "bytes32"
        },
        {
          "internalType": "bytes32",
          "name": "x",
          "type": "bytes32"
        },
        {
          "internalType": "bytes32",
          "name": "y",
          "type": "bytes32"
        }
      ],
      "name": "setPubkey",
      "outputs": [],
      "stateMutability": "nonpayable",
      "type": "function"
    },
    {
      "inputs": [
        {
          "internalType": "bytes32",
          "name": "node",
          "type": "bytes32"
        },
        {
          "internalType": "string",
          "name": "key",
          "type": "string"
        },
        {
          "internalType": "string",
          "name": "value",
          "type": "string"
        }
      ],
      "name": "setText",
      "outputs": [],
      "stateMutability": "nonpayable",
      "type": "function"
    },
    {
      "inputs": [
        {
          "internalType": "bytes32",
          "name": "node",
          "type": "bytes32"
        },
        {
          "internalType": "bytes",
          "name": "hash",
          "type": "bytes"
        }
      ],
      "name": "setZonehash",
      "outputs": [],
      "stateMutability": "nonpayable",
      "type": "function"
    },
    {
      "inputs": [
        {
          "internalType": "bytes32",
          "name": "node",
          "type": "bytes32"
        },
        {
          "internalType": "string",
          "name": "key",
          "type": "string"
        }
      ],
      "name": "text",
      "outputs": [
        {
          "internalType": "string",
          "name": "",
          "type": "string"
        }
      ],
      "stateMutability": "view",
      "type": "function"
    },
    {
      "inputs": [
        {
          "internalType": "bytes32",
          "name": "node",
          "type": "bytes32"
        }
      ],
      "name": "zonehash",
      "outputs": [
        {
          "internalType": "bytes",
          "name": "",
          "type": "bytes"
        }
      ],
      "stateMutability": "view",
      "type": "function"
    },
    {
      "inputs": [
        {
          "internalType": "address",
          "name": "operator",
          "type": "address"
        },
        {
          "internalType": "bool",
          "name": "approved",
          "type": "bool"
        }
      ],
      "name": "setApprovalForAll",
      "outputs": [],
      "stateMutability": "nonpayable",
      "type": "function"
    },
    {
      "inputs": [
        {
          "internalType": "address",
          "name": "account",
          "type": "address"
        },
        {
          "internalType": "address",
          "name": "operator",
          "type": "address"
        }
      ],
      "name": "isApprovedForAll",
      "outputs": [
        {
          "internalType": "bool",
          "name": "",
          "type": "bool"
        }
      ],
      "stateMutability": "view",
      "type": "function"
    },
    {
      "inputs": [
        {
          "internalType": "bytes32",
          "name": "node",
          "type": "bytes32"
        },
        {
          "internalType": "address",
          "name": "delegate",
          "type": "address"
        },
        {
          "internalType": "bool",
          "name": "approved",
          "type": "bool"
        }
      ],
      "name": "approve",
      "outputs": [],
      "stateMutability": "nonpayable",
      "type": "function"
    },
    {
      "inputs": [
        {
          "internalType": "address",
          "name": "owner",
          "type": "address"
        },
        {
          "internalType": "bytes32",
          "name": "node",
          "type": "bytes32"
        },
        {
          "internalType": "address",
          "name": "delegate",
          "type": "address"
        }
      ],
      "name": "isApprovedFor",
      "outputs": [
        {
          "internalType": "bool",
          "name": "",
          "type": "bool"
        }
      ],
      "stateMutability": "view",
      "type": "function"
    },
    {
      "inputs": [
        {
          "internalType": "bytes4",
          "name": "interfaceID",
          "type": "bytes4"
        }
      ],
      "name": "supportsInterface",
      "outputs": [
        {
          "internalType": "bool",
          "name": "",
          "type": "bool"
        }
      ],
      "stateMutability": "view",
      "type": "function"
    }
  ],
  "bytecode": "0x6101006040523480156200001257600080fd5b506040516200574238038062005742833981810160405281019062000038919062000333565b833360008273ffffffffffffffffffffffffffffffffffffffff166302571be37f91d1777781884d03a6757a803996e38de2a42967fb37eeaca72729271025a9e260001b6040518263ffffffff1660e01b81526004016200009a9190620003c0565b602060405180830381865afa158015620000b8573d6000803e3d6000fd5b505050506040513d601f19601f82011682018060405250810190620000de9190620003dd565b90508073ffffffffffffffffffffffffffffffffffffffff16631e83409a836040518263ffffffff1660e01b81526004016200011b919062000420565b6020604051808303816000875af11580156200013b573d6000803e3d6000fd5b505050506040513d601f19601f820116820180604052508101906200016191906200046e565b505050508373ffffffffffffffffffffffffffffffffffffffff1660808173ffffffffffffffffffffffffffffffffffffffff16815250508273ffffffffffffffffffffffffffffffffffffffff1660a08173ffffffffffffffffffffffffffffffffffffffff16815250508173ffffffffffffffffffffffffffffffffffffffff1660c08173ffffffffffffffffffffffffffffffffffffffff16815250508073ffffffffffffffffffffffffffffffffffffffff1660e08173ffffffffffffffffffffffffffffffffffffffff168152505050505050620004a0565b600080fd5b600073ffffffffffffffffffffffffffffffffffffffff82169050919050565b6000620002718262000244565b9050919050565b6000620002858262000264565b9050919050565b620002978162000278565b8114620002a357600080fd5b50565b600081519050620002b7816200028c565b92915050565b6000620002ca8262000264565b9050919050565b620002dc81620002bd565b8114620002e857600080fd5b50565b600081519050620002fc81620002d1565b92915050565b6200030d8162000264565b81146200031957600080fd5b50565b6000815190506200032d8162000302565b92915050565b6000806000806080858703121562000350576200034f6200023f565b5b60006200036087828801620002a6565b94505060206200037387828801620002eb565b935050604062000386878288016200031c565b925050606062000399878288016200031c565b91505092959194509250565b6000819050919050565b620003ba81620003a5565b82525050565b6000602082019050620003d76000830184620003af565b92915050565b600060208284031215620003f657620003f56200023f565b5b600062000406848285016200031c565b91505092915050565b6200041a8162000264565b82525050565b60006020820190506200043760008301846200040f565b92915050565b6200044881620003a5565b81146200045457600080fd5b50565b60008151905062000468816200043d565b92915050565b6000602082840312156200048757620004866200023f565b5b6000620004978482850162000457565b91505092915050565b60805160a05160c05160e051615261620004e160003960006124b30152600061245e0152600081816125af01526126020152600061251301526152616000f3fe608060405234801561001057600080fd5b50600436106101da5760003560e01c80638b95dd7111610104578063c8690233116100a2578063e32954eb11610071578063e32954eb146105d1578063e59d895d14610601578063e985e9c51461061d578063f1cb7e061461064d576101da565b8063c869023314610538578063ce3decdc14610569578063d5fa2b0014610585578063d700ff33146105a1576101da565b8063a8fa5682116100de578063a8fa568214610478578063a9784b3e146104a8578063ac9650d8146104d8578063bc1c58d114610508576101da565b80638b95dd7114610424578063a22cb46514610440578063a4b91a011461045c576101da565b80633603d7581161017c5780635c98042b1161014b5780635c98042b1461038c578063623195b0146103bc578063691f3431146103d85780637737221314610408576101da565b80633603d758146102e05780633b3b57de146102fc5780634cbf6ba41461032c57806359d1d43c1461035c576101da565b8063124a319c116101b8578063124a319c146102475780632203ab561461027757806329cd62ea146102a8578063304e6ade146102c4576101da565b806301ffc9a7146101df5780630af179d71461020f57806310f13a8c1461022b575b600080fd5b6101f960048036038101906101f491906137d9565b61067d565b6040516102069190613821565b60405180910390f35b610229600480360381019061022491906138d7565b61068f565b005b6102456004803603810190610240919061398d565b6108ee565b005b610261600480360381019061025c9190613a22565b6109eb565b60405161026e9190613aa3565b60405180910390f35b610291600480360381019061028c9190613af4565b610e46565b60405161029f929190613bd3565b60405180910390f35b6102c260048036038101906102bd9190613c03565b610fc6565b005b6102de60048036038101906102d991906138d7565b6110a3565b005b6102fa60048036038101906102f59190613c56565b611164565b005b61031660048036038101906103119190613c56565b611236565b6040516103239190613ca4565b60405180910390f35b61034660048036038101906103419190613cbf565b61126b565b6040516103539190613821565b60405180910390f35b61037660048036038101906103719190613cff565b6112fa565b6040516103839190613db4565b60405180910390f35b6103a660048036038101906103a19190613c56565b61140a565b6040516103b39190613dd6565b60405180910390f35b6103d660048036038101906103d19190613df8565b6114fa565b005b6103f260048036038101906103ed9190613c56565b6115dc565b6040516103ff9190613db4565b60405180910390f35b610422600480360381019061041d9190613cff565b6116cc565b005b61043e60048036038101906104399190613f9c565b61178d565b005b61045a60048036038101906104559190614063565b6118a6565b005b610476600480360381019061047191906140a3565b611a11565b005b610492600480360381019061048d9190614130565b611b7b565b60405161049f9190613dd6565b60405180910390f35b6104c260048036038101906104bd9190614183565b611c97565b6040516104cf9190613821565b60405180910390f35b6104f260048036038101906104ed919061422c565b611d3d565b6040516104ff9190614385565b60405180910390f35b610522600480360381019061051d9190613c56565b611d55565b60405161052f9190613dd6565b60405180910390f35b610552600480360381019061054d9190613c56565b611e45565b6040516105609291906143b6565b60405180910390f35b610583600480360381019061057e91906138d7565b611ef5565b005b61059f600480360381019061059a91906143df565b612084565b005b6105bb60048036038101906105b69190613c56565b6120b0565b6040516105c89190614442565b60405180910390f35b6105eb60048036038101906105e6919061445d565b6120d7565b6040516105f89190614385565b60405180910390f35b61061b600480360381019061061691906144bd565b6120ed565b005b61063760048036038101906106329190614510565b61224a565b6040516106449190613821565b60405180910390f35b61066760048036038101906106629190613af4565b6122de565b6040516106749190613dd6565b60405180910390f35b6000610688826123e0565b9050919050565b826106998161245a565b6106a257600080fd5b6000806060806000806000808b815260200190815260200160002060009054906101000a900467ffffffffffffffff169050600061072e60008b8b8080601f016020809104026020016040519081016040528093929190818152602001838380828437600081840152601f19601f820116905080830192505050505050506126fb90919063ffffffff16565b90505b61073a81612725565b6108705760008761ffff1603610795578060400151965061075a8161273b565b94508460405160200161076d919061458c565b60405160208183030381529060405280519060200120925061078e81612772565b9350610862565b60006107a08261273b565b9050816040015161ffff168861ffff161415806107cd57506107cb81876127ab90919063ffffffff16565b155b15610860576108398c878a8e8e8080601f016020809104026020016040519081016040528093929190818152602001838380828437600081840152601f19601f820116905080830192505050505050508b8c886020015161082e91906145d2565b60008c51148a6127d2565b81604001519750816020015196508095508580519060200120935061085d82612772565b94505b505b61086b81612b55565b610731565b506000845111156108e2576108e18a85888c8c8080601f016020809104026020016040519081016040528093929190818152602001838380828437600081840152601f19601f82011690508083019250505050505050898a8f8f90506108d691906145d2565b60008a5114886127d2565b5b50505050505050505050565b846108f88161245a565b61090157600080fd5b8282600a60008060008b815260200190815260200160002060009054906101000a900467ffffffffffffffff1667ffffffffffffffff1667ffffffffffffffff16815260200190815260200160002060008981526020019081526020016000208787604051610971929190614636565b9081526020016040518091039020918261098c929190614866565b50848460405161099d929190614636565b6040518091039020867f448bc014f1536726cf8d54ff3d6481ed3cbc683c2591ca204274009afa09b1a1878787876040516109db9493929190614963565b60405180910390a3505050505050565b6000806007600080600087815260200190815260200160002060009054906101000a900467ffffffffffffffff1667ffffffffffffffff1667ffffffffffffffff16815260200190815260200160002060008581526020019081526020016000206000847bffffffffffffffffffffffffffffffffffffffffffffffffffffffff19167bffffffffffffffffffffffffffffffffffffffffffffffffffffffff1916815260200190815260200160002060009054906101000a900473ffffffffffffffffffffffffffffffffffffffff169050600073ffffffffffffffffffffffffffffffffffffffff168173ffffffffffffffffffffffffffffffffffffffff1614610afb5780915050610e40565b6000610b0685611236565b9050600073ffffffffffffffffffffffffffffffffffffffff168173ffffffffffffffffffffffffffffffffffffffff1603610b4757600092505050610e40565b6000808273ffffffffffffffffffffffffffffffffffffffff167f01ffc9a700000000000000000000000000000000000000000000000000000000604051602401610b9291906149ad565b6040516020818303038152906040527f01ffc9a7000000000000000000000000000000000000000000000000000000007bffffffffffffffffffffffffffffffffffffffffffffffffffffffff19166020820180517bffffffffffffffffffffffffffffffffffffffffffffffffffffffff8381831617835250505050604051610c1c919061458c565b600060405180830381855afa9150503d8060008114610c57576040519150601f19603f3d011682016040523d82523d6000602084013e610c5c565b606091505b5091509150811580610c6f575060208151105b80610cbd5750600060f81b81601f81518110610c8e57610c8d6149c8565b5b602001015160f81c60f81b7effffffffffffffffffffffffffffffffffffffffffffffffffffffffffffff1916145b15610ccf576000945050505050610e40565b8273ffffffffffffffffffffffffffffffffffffffff1686604051602401610cf791906149ad565b6040516020818303038152906040527f01ffc9a7000000000000000000000000000000000000000000000000000000007bffffffffffffffffffffffffffffffffffffffffffffffffffffffff19166020820180517bffffffffffffffffffffffffffffffffffffffffffffffffffffffff8381831617835250505050604051610d81919061458c565b600060405180830381855afa9150503d8060008114610dbc576040519150601f19603f3d011682016040523d82523d6000602084013e610dc1565b606091505b508092508193505050811580610dd8575060208151105b80610e265750600060f81b81601f81518110610df757610df66149c8565b5b602001015160f81c60f81b7effffffffffffffffffffffffffffffffffffffffffffffffffffffffffffff1916145b15610e38576000945050505050610e40565b829450505050505b92915050565b6000606060006001600080600088815260200190815260200160002060009054906101000a900467ffffffffffffffff1667ffffffffffffffff1667ffffffffffffffff168152602001908152602001600020600086815260200190815260200160002090506000600190505b848111610fa657600085821614158015610eeb575060008260008381526020019081526020016000208054610ee790614689565b9050115b15610f9a5780826000838152602001908152602001600020808054610f0f90614689565b80601f0160208091040260200160405190810160405280929190818152602001828054610f3b90614689565b8015610f885780601f10610f5d57610100808354040283529160200191610f88565b820191906000526020600020905b815481529060010190602001808311610f6b57829003601f168201915b50505050509050935093505050610fbf565b600181901b9050610eb3565b5060006040518060200160405280600081525092509250505b9250929050565b82610fd08161245a565b610fd957600080fd5b6040518060400160405280848152602001838152506009600080600088815260200190815260200160002060009054906101000a900467ffffffffffffffff1667ffffffffffffffff1667ffffffffffffffff16815260200190815260200160002060008681526020019081526020016000206000820151816000015560208201518160010155905050837f1d6f5e03d3f63eb58751986629a5439baee5079ff04f345becb66e23eb154e4684846040516110959291906143b6565b60405180910390a250505050565b826110ad8161245a565b6110b657600080fd5b82826003600080600089815260200190815260200160002060009054906101000a900467ffffffffffffffff1667ffffffffffffffff1667ffffffffffffffff16815260200190815260200160002060008781526020019081526020016000209182611123929190614a5d565b50837fe379c1624ed7e714cc0937528a32359d69d5281337765313dba4e081b72d75788484604051611156929190614b5a565b60405180910390a250505050565b8061116e8161245a565b61117757600080fd5b600080838152602001908152602001600020600081819054906101000a900467ffffffffffffffff16809291906111ad90614b7e565b91906101000a81548167ffffffffffffffff021916908367ffffffffffffffff16021790555050817fc6621ccb8f3f5a04bb6502154b2caf6adf5983fe76dfef1cfc9c42e3579db44460008085815260200190815260200160002060009054906101000a900467ffffffffffffffff1660405161122a9190614442565b60405180910390a25050565b60008061124483603c6122de565b90506000815103611259576000915050611266565b61126281612c9b565b9150505b919050565b6000806006600080600087815260200190815260200160002060009054906101000a900467ffffffffffffffff1667ffffffffffffffff1667ffffffffffffffff1681526020019081526020016000206000858152602001908152602001600020600084815260200190815260200160002060009054906101000a900461ffff1661ffff161415905092915050565b6060600a600080600087815260200190815260200160002060009054906101000a900467ffffffffffffffff1667ffffffffffffffff1667ffffffffffffffff1681526020019081526020016000206000858152602001908152602001600020838360405161136a929190614636565b9081526020016040518091039020805461138390614689565b80601f01602080910402602001604051908101604052809291908181526020018280546113af90614689565b80156113fc5780601f106113d1576101008083540402835291602001916113fc565b820191906000526020600020905b8154815290600101906020018083116113df57829003601f168201915b505050505090509392505050565b60606004600080600085815260200190815260200160002060009054906101000a900467ffffffffffffffff1667ffffffffffffffff1667ffffffffffffffff1681526020019081526020016000206000838152602001908152602001600020805461147590614689565b80601f01602080910402602001604051908101604052809291908181526020018280546114a190614689565b80156114ee5780601f106114c3576101008083540402835291602001916114ee565b820191906000526020600020905b8154815290600101906020018083116114d157829003601f168201915b50505050509050919050565b836115048161245a565b61150d57600080fd5b60008460018661151d91906145d2565b161461152857600080fd5b8282600160008060008a815260200190815260200160002060009054906101000a900467ffffffffffffffff1667ffffffffffffffff1667ffffffffffffffff1681526020019081526020016000206000888152602001908152602001600020600087815260200190815260200160002091826115a6929190614a5d565b5083857faa121bbeef5f32f5961a2a28966e769023910fc9479059ee3495d4c1a696efe360405160405180910390a35050505050565b60606008600080600085815260200190815260200160002060009054906101000a900467ffffffffffffffff1667ffffffffffffffff1667ffffffffffffffff1681526020019081526020016000206000838152602001908152602001600020805461164790614689565b80601f016020809104026020016040519081016040528092919081815260200182805461167390614689565b80156116c05780601f10611695576101008083540402835291602001916116c0565b820191906000526020600020905b8154815290600101906020018083116116a357829003601f168201915b50505050509050919050565b826116d68161245a565b6116df57600080fd5b82826008600080600089815260200190815260200160002060009054906101000a900467ffffffffffffffff1667ffffffffffffffff1667ffffffffffffffff1681526020019081526020016000206000878152602001908152602001600020918261174c929190614866565b50837fb7d29e911041e8d9b843369e890bcb72c9388692ba48b65ac54e7214c4c348f7848460405161177f929190614bae565b60405180910390a250505050565b826117978161245a565b6117a057600080fd5b837f65412581168e88a1e60c6459d7f44ae83ad0832e670826c05a4e2476b57af75284846040516117d2929190613bd3565b60405180910390a2603c830361182357837f52d7d861f09ab3d26239d492e8968629f95e9e318cf0b73bfddc441522a15fd261180d84612c9b565b60405161181a9190614c27565b60405180910390a25b816002600080600088815260200190815260200160002060009054906101000a900467ffffffffffffffff1667ffffffffffffffff1667ffffffffffffffff16815260200190815260200160002060008681526020019081526020016000206000858152602001908152602001600020908161189f9190614c42565b5050505050565b8173ffffffffffffffffffffffffffffffffffffffff163373ffffffffffffffffffffffffffffffffffffffff1603611914576040517f08c379a000000000000000000000000000000000000000000000000000000000815260040161190b90614d86565b60405180910390fd5b80600b60003373ffffffffffffffffffffffffffffffffffffffff1673ffffffffffffffffffffffffffffffffffffffff16815260200190815260200160002060008473ffffffffffffffffffffffffffffffffffffffff1673ffffffffffffffffffffffffffffffffffffffff16815260200190815260200160002060006101000a81548160ff0219169083151502179055508173ffffffffffffffffffffffffffffffffffffffff163373ffffffffffffffffffffffffffffffffffffffff167f17307eab39ab6107e8899845ad3d59bd9653f200f220920489ca2b5937696c3183604051611a059190613821565b60405180910390a35050565b8173ffffffffffffffffffffffffffffffffffffffff163373ffffffffffffffffffffffffffffffffffffffff1603611a7f576040517f08c379a0000000000000000000000000000000000000000000000000000000008152600401611a7690614df2565b60405180910390fd5b80600c60003373ffffffffffffffffffffffffffffffffffffffff1673ffffffffffffffffffffffffffffffffffffffff168152602001908152602001600020600085815260200190815260200160002060008473ffffffffffffffffffffffffffffffffffffffff1673ffffffffffffffffffffffffffffffffffffffff16815260200190815260200160002060006101000a81548160ff0219169083151502179055508015158273ffffffffffffffffffffffffffffffffffffffff16847ff0ddb3b04746704017f9aa8bd728fcc2c1d11675041205350018915f5e4750a033604051611b6e9190613aa3565b60405180910390a4505050565b60606005600080600087815260200190815260200160002060009054906101000a900467ffffffffffffffff1667ffffffffffffffff1667ffffffffffffffff1681526020019081526020016000206000858152602001908152602001600020600084815260200190815260200160002060008361ffff1661ffff1681526020019081526020016000208054611c1090614689565b80601f0160208091040260200160405190810160405280929190818152602001828054611c3c90614689565b8015611c895780601f10611c5e57610100808354040283529160200191611c89565b820191906000526020600020905b815481529060010190602001808311611c6c57829003601f168201915b505050505090509392505050565b6000600c60008573ffffffffffffffffffffffffffffffffffffffff1673ffffffffffffffffffffffffffffffffffffffff168152602001908152602001600020600084815260200190815260200160002060008373ffffffffffffffffffffffffffffffffffffffff1673ffffffffffffffffffffffffffffffffffffffff16815260200190815260200160002060009054906101000a900460ff1690509392505050565b6060611d4d6000801b8484612cbe565b905092915050565b60606003600080600085815260200190815260200160002060009054906101000a900467ffffffffffffffff1667ffffffffffffffff1667ffffffffffffffff16815260200190815260200160002060008381526020019081526020016000208054611dc090614689565b80601f0160208091040260200160405190810160405280929190818152602001828054611dec90614689565b8015611e395780601f10611e0e57610100808354040283529160200191611e39565b820191906000526020600020905b815481529060010190602001808311611e1c57829003601f168201915b50505050509050919050565b600080600080600085815260200190815260200160002060009054906101000a900467ffffffffffffffff169050600960008267ffffffffffffffff1667ffffffffffffffff168152602001908152602001600020600085815260200190815260200160002060000154600960008367ffffffffffffffff1667ffffffffffffffff1681526020019081526020016000206000868152602001908152602001600020600101549250925050915091565b82611eff8161245a565b611f0857600080fd5b600080600086815260200190815260200160002060009054906101000a900467ffffffffffffffff1690506000600460008367ffffffffffffffff1667ffffffffffffffff16815260200190815260200160002060008781526020019081526020016000208054611f7890614689565b80601f0160208091040260200160405190810160405280929190818152602001828054611fa490614689565b8015611ff15780601f10611fc657610100808354040283529160200191611ff1565b820191906000526020600020905b815481529060010190602001808311611fd457829003601f168201915b505050505090508484600460008567ffffffffffffffff1667ffffffffffffffff1681526020019081526020016000206000898152602001908152602001600020918261203f929190614a5d565b50857f8f15ed4b723ef428f250961da8315675b507046737e19319fc1a4d81bfe87f8582878760405161207493929190614e12565b60405180910390a2505050505050565b8161208e8161245a565b61209757600080fd5b6120ab83603c6120a685612e8d565b61178d565b505050565b60006020528060005260406000206000915054906101000a900467ffffffffffffffff1681565b60606120e4848484612cbe565b90509392505050565b826120f78161245a565b61210057600080fd5b816007600080600088815260200190815260200160002060009054906101000a900467ffffffffffffffff1667ffffffffffffffff1667ffffffffffffffff16815260200190815260200160002060008681526020019081526020016000206000857bffffffffffffffffffffffffffffffffffffffffffffffffffffffff19167bffffffffffffffffffffffffffffffffffffffffffffffffffffffff1916815260200190815260200160002060006101000a81548173ffffffffffffffffffffffffffffffffffffffff021916908373ffffffffffffffffffffffffffffffffffffffff160217905550827bffffffffffffffffffffffffffffffffffffffffffffffffffffffff1916847f7c69f06bea0bdef565b709e93a147836b0063ba2dd89f02d0b7e8d931e6a6daa8460405161223c9190613aa3565b60405180910390a350505050565b6000600b60008473ffffffffffffffffffffffffffffffffffffffff1673ffffffffffffffffffffffffffffffffffffffff16815260200190815260200160002060008373ffffffffffffffffffffffffffffffffffffffff1673ffffffffffffffffffffffffffffffffffffffff16815260200190815260200160002060009054906101000a900460ff16905092915050565b60606002600080600086815260200190815260200160002060009054906101000a900467ffffffffffffffff1667ffffffffffffffff1667ffffffffffffffff16815260200190815260200160002060008481526020019081526020016000206000838152602001908152602001600020805461235a90614689565b80601f016020809104026020016040519081016040528092919081815260200182805461238690614689565b80156123d35780601f106123a8576101008083540402835291602001916123d3565b820191906000526020600020905b8154815290600101906020018083116123b657829003601f168201915b5050505050905092915050565b60007f59d1d43c000000000000000000000000000000000000000000000000000000007bffffffffffffffffffffffffffffffffffffffffffffffffffffffff1916827bffffffffffffffffffffffffffffffffffffffffffffffffffffffff19161480612453575061245282612ef1565b5b9050919050565b60007f000000000000000000000000000000000000000000000000000000000000000073ffffffffffffffffffffffffffffffffffffffff163373ffffffffffffffffffffffffffffffffffffffff16148061250157507f000000000000000000000000000000000000000000000000000000000000000073ffffffffffffffffffffffffffffffffffffffff163373ffffffffffffffffffffffffffffffffffffffff16145b1561250f57600190506126f6565b60007f000000000000000000000000000000000000000000000000000000000000000073ffffffffffffffffffffffffffffffffffffffff166302571be3846040518263ffffffff1660e01b815260040161256a9190614e4b565b602060405180830381865afa158015612587573d6000803e3d6000fd5b505050506040513d601f19601f820116820180604052508101906125ab9190614e7b565b90507f000000000000000000000000000000000000000000000000000000000000000073ffffffffffffffffffffffffffffffffffffffff168173ffffffffffffffffffffffffffffffffffffffff16036126a0577f000000000000000000000000000000000000000000000000000000000000000073ffffffffffffffffffffffffffffffffffffffff16636352211e8460001c6040518263ffffffff1660e01b815260040161265c9190614ea8565b602060405180830381865afa158015612679573d6000803e3d6000fd5b505050506040513d601f19601f8201168201806040525081019061269d9190614e7b565b90505b3373ffffffffffffffffffffffffffffffffffffffff168173ffffffffffffffffffffffffffffffffffffffff1614806126e057506126df813361224a565b5b806126f257506126f1818433611c97565b5b9150505b919050565b6127036136c5565b828160000181905250818160c001818152505061271f81612b55565b92915050565b6000816000015151826020015110159050919050565b606061276b826020015161275784600001518560200151612f6b565b8460000151612fe79092919063ffffffff16565b9050919050565b60606127a48260a001518360a001518460c0015161279091906145d2565b8460000151612fe79092919063ffffffff16565b9050919050565b6000815183511480156127ca57506127c9836000846000875161307c565b5b905092915050565b60008780519060200120905060006127f5868689612fe79092919063ffffffff16565b905083156129a3576000600560008567ffffffffffffffff1667ffffffffffffffff16815260200190815260200160002060008c8152602001908152602001600020600084815260200190815260200160002060008a61ffff1661ffff168152602001908152602001600020805461286c90614689565b9050146128f657600660008467ffffffffffffffff1667ffffffffffffffff16815260200190815260200160002060008b81526020019081526020016000206000838152602001908152602001600020600081819054906101000a900461ffff16809291906128da90614ec3565b91906101000a81548161ffff021916908361ffff160217905550505b600560008467ffffffffffffffff1667ffffffffffffffff16815260200190815260200160002060008b8152602001908152602001600020600083815260200190815260200160002060008961ffff1661ffff16815260200190815260200160002060006129649190613710565b897f03528ed0c2a3ebc993b12ce3c16bb382f9c7d88ef7d8a1bf290eaf35955a12078a8a604051612996929190614efb565b60405180910390a2612b49565b6000600560008567ffffffffffffffff1667ffffffffffffffff16815260200190815260200160002060008c8152602001908152602001600020600084815260200190815260200160002060008a61ffff1661ffff1681526020019081526020016000208054612a1290614689565b905003612a9c57600660008467ffffffffffffffff1667ffffffffffffffff16815260200190815260200160002060008b81526020019081526020016000206000838152602001908152602001600020600081819054906101000a900461ffff1680929190612a8090614f2b565b91906101000a81548161ffff021916908361ffff160217905550505b80600560008567ffffffffffffffff1667ffffffffffffffff16815260200190815260200160002060008c8152602001908152602001600020600084815260200190815260200160002060008a61ffff1661ffff1681526020019081526020016000209081612b0b9190614c42565b50897f52a608b3303a48862d07a73d82fa221318c0027fbbcfb1b2329bface3f19ff2b8a8a84604051612b4093929190614f55565b60405180910390a25b50505050505050505050565b8060c0015181602001818152505080600001515181602001511015612c98576000612b8882600001518360200151612f6b565b8260200151612b979190614f9a565b9050612bb08183600001516130a090919063ffffffff16565b826040019061ffff16908161ffff1681525050600281612bd09190614f9a565b9050612be98183600001516130a090919063ffffffff16565b826060019061ffff16908161ffff1681525050600281612c099190614f9a565b9050612c228183600001516130cf90919063ffffffff16565b826080019063ffffffff16908163ffffffff1681525050600481612c469190614f9a565b90506000612c618284600001516130a090919063ffffffff16565b61ffff169050600282612c749190614f9a565b9150818360a00181815250508082612c8c9190614f9a565b8360c001818152505050505b50565b60006014825114612cab57600080fd5b600c6101000a6020830151049050919050565b60608282905067ffffffffffffffff811115612cdd57612cdc613e71565b5b604051908082528060200260200182016040528015612d1057816020015b6060815260200190600190039081612cfb5790505b50905060005b83839050811015612e85576000801b8514612db5576000848483818110612d4057612d3f6149c8565b5b9050602002810190612d529190614fdd565b600490602492612d649392919061504a565b90612d6f9190615085565b9050858114612db3576040517f08c379a0000000000000000000000000000000000000000000000000000000008152600401612daa90615156565b60405180910390fd5b505b6000803073ffffffffffffffffffffffffffffffffffffffff16868685818110612de257612de16149c8565b5b9050602002810190612df49190614fdd565b604051612e0292919061519b565b600060405180830381855af49150503d8060008114612e3d576040519150601f19603f3d011682016040523d82523d6000602084013e612e42565b606091505b509150915081612e5157600080fd5b80848481518110612e6557612e646149c8565b5b602002602001018190525050508080612e7d906151b4565b915050612d16565b509392505050565b6060601467ffffffffffffffff811115612eaa57612ea9613e71565b5b6040519080825280601f01601f191660200182016040528015612edc5781602001600182028036833780820191505090505b509050600c6101000a82026020820152919050565b60007fc8690233000000000000000000000000000000000000000000000000000000007bffffffffffffffffffffffffffffffffffffffffffffffffffffffff1916827bffffffffffffffffffffffffffffffffffffffffffffffffffffffff19161480612f645750612f6382613100565b5b9050919050565b6000808290505b600115612fd25783518110612f8a57612f896151fc565b5b6000612f9f828661317a90919063ffffffff16565b60ff169050600181612fb19190614f9a565b82612fbc9190614f9a565b915060008103612fcc5750612fd2565b50612f72565b8281612fde91906145d2565b91505092915050565b606083518284612ff79190614f9a565b111561300257600080fd5b60008267ffffffffffffffff81111561301e5761301d613e71565b5b6040519080825280601f01601f1916602001820160405280156130505781602001600182028036833780820191505090505b509050600080602083019150856020880101905061306f8282876131a5565b8293505050509392505050565b6000613089848484613209565b613094878785613209565b14905095945050505050565b600082516002836130b19190614f9a565b11156130bc57600080fd5b61ffff8260028501015116905092915050565b600082516004836130e09190614f9a565b11156130eb57600080fd5b63ffffffff8260048501015116905092915050565b60007f691f3431000000000000000000000000000000000000000000000000000000007bffffffffffffffffffffffffffffffffffffffffffffffffffffffff1916827bffffffffffffffffffffffffffffffffffffffffffffffffffffffff19161480613173575061317282613235565b5b9050919050565b600082828151811061318f5761318e6149c8565b5b602001015160f81c60f81b60f81c905092915050565b5b602081106131e457815183526020836131bf9190614f9a565b92506020826131ce9190614f9a565b91506020816131dd91906145d2565b90506131a6565b60006001826020036101000a0390508019835116818551168181178652505050505050565b6000835182846132199190614f9a565b111561322457600080fd5b818360208601012090509392505050565b60007f124a319c000000000000000000000000000000000000000000000000000000007bffffffffffffffffffffffffffffffffffffffffffffffffffffffff1916827bffffffffffffffffffffffffffffffffffffffffffffffffffffffff191614806132a857506132a7826132af565b5b9050919050565b60007fa8fa5682000000000000000000000000000000000000000000000000000000007bffffffffffffffffffffffffffffffffffffffffffffffffffffffff1916827bffffffffffffffffffffffffffffffffffffffffffffffffffffffff1916148061337a57507f5c98042b000000000000000000000000000000000000000000000000000000007bffffffffffffffffffffffffffffffffffffffffffffffffffffffff1916827bffffffffffffffffffffffffffffffffffffffffffffffffffffffff1916145b8061338a575061338982613391565b5b9050919050565b60007fbc1c58d1000000000000000000000000000000000000000000000000000000007bffffffffffffffffffffffffffffffffffffffffffffffffffffffff1916827bffffffffffffffffffffffffffffffffffffffffffffffffffffffff1916148061340457506134038261340b565b5b9050919050565b60007f3b3b57de000000000000000000000000000000000000000000000000000000007bffffffffffffffffffffffffffffffffffffffffffffffffffffffff1916827bffffffffffffffffffffffffffffffffffffffffffffffffffffffff191614806134d657507ff1cb7e06000000000000000000000000000000000000000000000000000000007bffffffffffffffffffffffffffffffffffffffffffffffffffffffff1916827bffffffffffffffffffffffffffffffffffffffffffffffffffffffff1916145b806134e657506134e5826134ed565b5b9050919050565b60007f2203ab56000000000000000000000000000000000000000000000000000000007bffffffffffffffffffffffffffffffffffffffffffffffffffffffff1916827bffffffffffffffffffffffffffffffffffffffffffffffffffffffff19161480613560575061355f82613567565b5b9050919050565b60007fd700ff33000000000000000000000000000000000000000000000000000000007bffffffffffffffffffffffffffffffffffffffffffffffffffffffff1916827bffffffffffffffffffffffffffffffffffffffffffffffffffffffff191614806135da57506135d9826135e1565b5b9050919050565b60007f4fbf0433000000000000000000000000000000000000000000000000000000007bffffffffffffffffffffffffffffffffffffffffffffffffffffffff1916827bffffffffffffffffffffffffffffffffffffffffffffffffffffffff1916148061365457506136538261365b565b5b9050919050565b60007f01ffc9a7000000000000000000000000000000000000000000000000000000007bffffffffffffffffffffffffffffffffffffffffffffffffffffffff1916827bffffffffffffffffffffffffffffffffffffffffffffffffffffffff1916149050919050565b6040518060e001604052806060815260200160008152602001600061ffff168152602001600061ffff168152602001600063ffffffff16815260200160008152602001600081525090565b50805461371c90614689565b6000825580601f1061372e575061374d565b601f01602090049060005260206000209081019061374c9190613750565b5b50565b5b80821115613769576000816000905550600101613751565b5090565b6000604051905090565b600080fd5b600080fd5b60007fffffffff0000000000000000000000000000000000000000000000000000000082169050919050565b6137b681613781565b81146137c157600080fd5b50565b6000813590506137d3816137ad565b92915050565b6000602082840312156137ef576137ee613777565b5b60006137fd848285016137c4565b91505092915050565b60008115159050919050565b61381b81613806565b82525050565b60006020820190506138366000830184613812565b92915050565b6000819050919050565b61384f8161383c565b811461385a57600080fd5b50565b60008135905061386c81613846565b92915050565b600080fd5b600080fd5b600080fd5b60008083601f84011261389757613896613872565b5b8235905067ffffffffffffffff8111156138b4576138b3613877565b5b6020830191508360018202830111156138d0576138cf61387c565b5b9250929050565b6000806000604084860312156138f0576138ef613777565b5b60006138fe8682870161385d565b935050602084013567ffffffffffffffff81111561391f5761391e61377c565b5b61392b86828701613881565b92509250509250925092565b60008083601f84011261394d5761394c613872565b5b8235905067ffffffffffffffff81111561396a57613969613877565b5b6020830191508360018202830111156139865761398561387c565b5b9250929050565b6000806000806000606086880312156139a9576139a8613777565b5b60006139b78882890161385d565b955050602086013567ffffffffffffffff8111156139d8576139d761377c565b5b6139e488828901613937565b9450945050604086013567ffffffffffffffff811115613a0757613a0661377c565b5b613a1388828901613937565b92509250509295509295909350565b60008060408385031215613a3957613a38613777565b5b6000613a478582860161385d565b9250506020613a58858286016137c4565b9150509250929050565b600073ffffffffffffffffffffffffffffffffffffffff82169050919050565b6000613a8d82613a62565b9050919050565b613a9d81613a82565b82525050565b6000602082019050613ab86000830184613a94565b92915050565b6000819050919050565b613ad181613abe565b8114613adc57600080fd5b50565b600081359050613aee81613ac8565b92915050565b60008060408385031215613b0b57613b0a613777565b5b6000613b198582860161385d565b9250506020613b2a85828601613adf565b9150509250929050565b613b3d81613abe565b82525050565b600081519050919050565b600082825260208201905092915050565b60005b83811015613b7d578082015181840152602081019050613b62565b60008484015250505050565b6000601f19601f8301169050919050565b6000613ba582613b43565b613baf8185613b4e565b9350613bbf818560208601613b5f565b613bc881613b89565b840191505092915050565b6000604082019050613be86000830185613b34565b8181036020830152613bfa8184613b9a565b90509392505050565b600080600060608486031215613c1c57613c1b613777565b5b6000613c2a8682870161385d565b9350506020613c3b8682870161385d565b9250506040613c4c8682870161385d565b9150509250925092565b600060208284031215613c6c57613c6b613777565b5b6000613c7a8482850161385d565b91505092915050565b6000613c8e82613a62565b9050919050565b613c9e81613c83565b82525050565b6000602082019050613cb96000830184613c95565b92915050565b60008060408385031215613cd657613cd5613777565b5b6000613ce48582860161385d565b9250506020613cf58582860161385d565b9150509250929050565b600080600060408486031215613d1857613d17613777565b5b6000613d268682870161385d565b935050602084013567ffffffffffffffff811115613d4757613d4661377c565b5b613d5386828701613937565b92509250509250925092565b600081519050919050565b600082825260208201905092915050565b6000613d8682613d5f565b613d908185613d6a565b9350613da0818560208601613b5f565b613da981613b89565b840191505092915050565b60006020820190508181036000830152613dce8184613d7b565b905092915050565b60006020820190508181036000830152613df08184613b9a565b905092915050565b60008060008060608587031215613e1257613e11613777565b5b6000613e208782880161385d565b9450506020613e3187828801613adf565b935050604085013567ffffffffffffffff811115613e5257613e5161377c565b5b613e5e87828801613881565b925092505092959194509250565b600080fd5b7f4e487b7100000000000000000000000000000000000000000000000000000000600052604160045260246000fd5b613ea982613b89565b810181811067ffffffffffffffff82111715613ec857613ec7613e71565b5b80604052505050565b6000613edb61376d565b9050613ee78282613ea0565b919050565b600067ffffffffffffffff821115613f0757613f06613e71565b5b613f1082613b89565b9050602081019050919050565b82818337600083830152505050565b6000613f3f613f3a84613eec565b613ed1565b905082815260208101848484011115613f5b57613f5a613e6c565b5b613f66848285613f1d565b509392505050565b600082601f830112613f8357613f82613872565b5b8135613f93848260208601613f2c565b91505092915050565b600080600060608486031215613fb557613fb4613777565b5b6000613fc38682870161385d565b9350506020613fd486828701613adf565b925050604084013567ffffffffffffffff811115613ff557613ff461377c565b5b61400186828701613f6e565b9150509250925092565b61401481613a82565b811461401f57600080fd5b50565b6000813590506140318161400b565b92915050565b61404081613806565b811461404b57600080fd5b50565b60008135905061405d81614037565b92915050565b6000806040838503121561407a57614079613777565b5b600061408885828601614022565b92505060206140998582860161404e565b9150509250929050565b6000806000606084860312156140bc576140bb613777565b5b60006140ca8682870161385d565b93505060206140db86828701614022565b92505060406140ec8682870161404e565b9150509250925092565b600061ffff82169050919050565b61410d816140f6565b811461411857600080fd5b50565b60008135905061412a81614104565b92915050565b60008060006060848603121561414957614148613777565b5b60006141578682870161385d565b93505060206141688682870161385d565b92505060406141798682870161411b565b9150509250925092565b60008060006060848603121561419c5761419b613777565b5b60006141aa86828701614022565b93505060206141bb8682870161385d565b92505060406141cc86828701614022565b9150509250925092565b60008083601f8401126141ec576141eb613872565b5b8235905067ffffffffffffffff81111561420957614208613877565b5b6020830191508360208202830111156142255761422461387c565b5b9250929050565b6000806020838503121561424357614242613777565b5b600083013567ffffffffffffffff8111156142615761426061377c565b5b61426d858286016141d6565b92509250509250929050565b600081519050919050565b600082825260208201905092915050565b6000819050602082019050919050565b600082825260208201905092915050565b60006142c182613b43565b6142cb81856142a5565b93506142db818560208601613b5f565b6142e481613b89565b840191505092915050565b60006142fb83836142b6565b905092915050565b6000602082019050919050565b600061431b82614279565b6143258185614284565b93508360208202850161433785614295565b8060005b85811015614373578484038952815161435485826142ef565b945061435f83614303565b925060208a0199505060018101905061433b565b50829750879550505050505092915050565b6000602082019050818103600083015261439f8184614310565b905092915050565b6143b08161383c565b82525050565b60006040820190506143cb60008301856143a7565b6143d860208301846143a7565b9392505050565b600080604083850312156143f6576143f5613777565b5b60006144048582860161385d565b925050602061441585828601614022565b9150509250929050565b600067ffffffffffffffff82169050919050565b61443c8161441f565b82525050565b60006020820190506144576000830184614433565b92915050565b60008060006040848603121561447657614475613777565b5b60006144848682870161385d565b935050602084013567ffffffffffffffff8111156144a5576144a461377c565b5b6144b1868287016141d6565b92509250509250925092565b6000806000606084860312156144d6576144d5613777565b5b60006144e48682870161385d565b93505060206144f5868287016137c4565b925050604061450686828701614022565b9150509250925092565b6000806040838503121561452757614526613777565b5b600061453585828601614022565b925050602061454685828601614022565b9150509250929050565b600081905092915050565b600061456682613b43565b6145708185614550565b9350614580818560208601613b5f565b80840191505092915050565b6000614598828461455b565b915081905092915050565b7f4e487b7100000000000000000000000000000000000000000000000000000000600052601160045260246000fd5b60006145dd82613abe565b91506145e883613abe565b9250828203905081811115614600576145ff6145a3565b5b92915050565b600081905092915050565b600061461d8385614606565b935061462a838584613f1d565b82840190509392505050565b6000614643828486614611565b91508190509392505050565b600082905092915050565b7f4e487b7100000000000000000000000000000000000000000000000000000000600052602260045260246000fd5b600060028204905060018216806146a157607f821691505b6020821081036146b4576146b361465a565b5b50919050565b60008190508160005260206000209050919050565b60006020601f8301049050919050565b600082821b905092915050565b60006008830261471c7fffffffffffffffffffffffffffffffffffffffffffffffffffffffffffffffff826146df565b61472686836146df565b95508019841693508086168417925050509392505050565b6000819050919050565b600061476361475e61475984613abe565b61473e565b613abe565b9050919050565b6000819050919050565b61477d83614748565b6147916147898261476a565b8484546146ec565b825550505050565b600090565b6147a6614799565b6147b1818484614774565b505050565b5b818110156147d5576147ca60008261479e565b6001810190506147b7565b5050565b601f82111561481a576147eb816146ba565b6147f4846146cf565b81016020851015614803578190505b61481761480f856146cf565b8301826147b6565b50505b505050565b600082821c905092915050565b600061483d6000198460080261481f565b1980831691505092915050565b6000614856838361482c565b9150826002028217905092915050565b614870838361464f565b67ffffffffffffffff81111561488957614888613e71565b5b6148938254614689565b61489e8282856147d9565b6000601f8311600181146148cd57600084156148bb578287013590505b6148c5858261484a565b86555061492d565b601f1984166148db866146ba565b60005b82811015614903578489013582556001820191506020850194506020810190506148de565b86831015614920578489013561491c601f89168261482c565b8355505b6001600288020188555050505b50505050505050565b60006149428385613d6a565b935061494f838584613f1d565b61495883613b89565b840190509392505050565b6000604082019050818103600083015261497e818688614936565b90508181036020830152614993818486614936565b905095945050505050565b6149a781613781565b82525050565b60006020820190506149c2600083018461499e565b92915050565b7f4e487b7100000000000000000000000000000000000000000000000000000000600052603260045260246000fd5b600082905092915050565b60008190508160005260206000209050919050565b601f821115614a5857614a2981614a02565b614a32846146cf565b81016020851015614a41578190505b614a55614a4d856146cf565b8301826147b6565b50505b505050565b614a6783836149f7565b67ffffffffffffffff811115614a8057614a7f613e71565b5b614a8a8254614689565b614a95828285614a17565b6000601f831160018114614ac45760008415614ab2578287013590505b614abc858261484a565b865550614b24565b601f198416614ad286614a02565b60005b82811015614afa57848901358255600182019150602085019450602081019050614ad5565b86831015614b175784890135614b13601f89168261482c565b8355505b6001600288020188555050505b50505050505050565b6000614b398385613b4e565b9350614b46838584613f1d565b614b4f83613b89565b840190509392505050565b60006020820190508181036000830152614b75818486614b2d565b90509392505050565b6000614b898261441f565b915067ffffffffffffffff8203614ba357614ba26145a3565b5b600182019050919050565b60006020820190508181036000830152614bc9818486614936565b90509392505050565b6000614bed614be8614be384613a62565b61473e565b613a62565b9050919050565b6000614bff82614bd2565b9050919050565b6000614c1182614bf4565b9050919050565b614c2181614c06565b82525050565b6000602082019050614c3c6000830184614c18565b92915050565b614c4b82613b43565b67ffffffffffffffff811115614c6457614c63613e71565b5b614c6e8254614689565b614c79828285614a17565b600060209050601f831160018114614cac5760008415614c9a578287015190505b614ca4858261484a565b865550614d0c565b601f198416614cba86614a02565b60005b82811015614ce257848901518255600182019150602085019450602081019050614cbd565b86831015614cff5784890151614cfb601f89168261482c565b8355505b6001600288020188555050505b505050505050565b7f455243313135353a2073657474696e6720617070726f76616c2073746174757360008201527f20666f722073656c660000000000000000000000000000000000000000000000602082015250565b6000614d70602983613d6a565b9150614d7b82614d14565b604082019050919050565b60006020820190508181036000830152614d9f81614d63565b9050919050565b7f53657474696e672064656c65676174652073746174757320666f722073656c66600082015250565b6000614ddc602083613d6a565b9150614de782614da6565b602082019050919050565b60006020820190508181036000830152614e0b81614dcf565b9050919050565b60006040820190508181036000830152614e2c8186613b9a565b90508181036020830152614e41818486614b2d565b9050949350505050565b6000602082019050614e6060008301846143a7565b92915050565b600081519050614e758161400b565b92915050565b600060208284031215614e9157614e90613777565b5b6000614e9f84828501614e66565b91505092915050565b6000602082019050614ebd6000830184613b34565b92915050565b6000614ece826140f6565b915060008203614ee157614ee06145a3565b5b600182039050919050565b614ef5816140f6565b82525050565b60006040820190508181036000830152614f158185613b9a565b9050614f246020830184614eec565b9392505050565b6000614f36826140f6565b915061ffff8203614f4a57614f496145a3565b5b600182019050919050565b60006060820190508181036000830152614f6f8186613b9a565b9050614f7e6020830185614eec565b8181036040830152614f908184613b9a565b9050949350505050565b6000614fa582613abe565b9150614fb083613abe565b9250828201905080821115614fc857614fc76145a3565b5b92915050565b600080fd5b600080fd5b600080fd5b60008083356001602003843603038112614ffa57614ff9614fce565b5b80840192508235915067ffffffffffffffff82111561501c5761501b614fd3565b5b60208301925060018202360383131561503857615037614fd8565b5b509250929050565b600080fd5b600080fd5b6000808585111561505e5761505d615040565b5b8386111561506f5761506e615045565b5b6001850283019150848603905094509492505050565b600061509183836149f7565b8261509c813561383c565b925060208210156150dc576150d77fffffffffffffffffffffffffffffffffffffffffffffffffffffffffffffffff836020036008026146df565b831692505b505092915050565b7f6d756c746963616c6c3a20416c6c207265636f726473206d757374206861766560008201527f2061206d61746368696e67206e616d6568617368000000000000000000000000602082015250565b6000615140603483613d6a565b915061514b826150e4565b604082019050919050565b6000602082019050818103600083015261516f81615133565b9050919050565b60006151828385614550565b935061518f838584613f1d565b82840190509392505050565b60006151a8828486615176565b91508190509392505050565b60006151bf82613abe565b91507fffffffffffffffffffffffffffffffffffffffffffffffffffffffffffffffff82036151f1576151f06145a3565b5b600182019050919050565b7f4e487b7100000000000000000000000000000000000000000000000000000000600052600160045260246000fdfea2646970667358221220837ae6c39217c362aeefab78878882afcf32571e851408ae30e35b8d1c5e569964736f6c63430008110033",
  "immutableReferences": {
    "2784": [
      {
        "length": 32,
        "start": 9491
      }
    ],
    "2787": [
      {
        "length": 32,
        "start": 9647
      },
      {
        "length": 32,
        "start": 9730
      }
    ],
    "2789": [
      {
        "length": 32,
        "start": 9310
      }
    ],
    "2791": [
      {
        "length": 32,
        "start": 9395
      }
    ]
  },
  "source": "//SPDX-License-Identifier: MIT\npragma solidity >=0.8.17 <0.9.0;\n\nimport \"../registry/ENS.sol\";\nimport \"./profiles/ABIResolver.sol\";\nimport \"./profiles/AddrResolver.sol\";\nimport \"./profiles/ContentHashResolver.sol\";\nimport \"./profiles/DNSResolver.sol\";\nimport \"./profiles/InterfaceResolver.sol\";\nimport \"./profiles/NameResolver.sol\";\nimport \"./profiles/PubkeyResolver.sol\";\nimport \"./profiles/TextResolver.sol\";\nimport \"./Multicallable.sol\";\nimport {ReverseClaimer} from \"../reverseRegistrar/ReverseClaimer.sol\";\nimport {INameWrapper} from \"../wrapper/INameWrapper.sol\";\n\n/**\n * A simple resolver anyone can use; only allows the owner of a node to set its\n * address.\n */\ncontract PublicResolver is\n    Multicallable,\n    ABIResolver,\n    AddrResolver,\n    ContentHashResolver,\n    DNSResolver,\n    InterfaceResolver,\n    NameResolver,\n    PubkeyResolver,\n    TextResolver,\n    ReverseClaimer\n{\n    ENS immutable ens;\n    INameWrapper immutable nameWrapper;\n    address immutable trustedETHController;\n    address immutable trustedReverseRegistrar;\n\n    /**\n     * A mapping of operators. An address that is authorised for an address\n     * may make any changes to the name that the owner could, but may not update\n     * the set of authorisations.\n     * (owner, operator) => approved\n     */\n    mapping(address => mapping(address => bool)) private _operatorApprovals;\n\n    /**\n     * A mapping of delegates. A delegate that is authorised by an owner\n     * for a name may make changes to the name's resolver, but may not update\n     * the set of token approvals.\n     * (owner, name, delegate) => approved\n     */\n    mapping(address => mapping(bytes32 => mapping(address => bool)))\n        private _tokenApprovals;\n\n    // Logged when an operator is added or removed.\n    event ApprovalForAll(\n        address indexed owner,\n        address indexed operator,\n        bool approved\n    );\n\n    // Logged when a delegate is approved or  an approval is revoked.\n    event Approved(\n        address owner,\n        bytes32 indexed node,\n        address indexed delegate,\n        bool indexed approved\n    );\n\n    constructor(\n        ENS _ens,\n        INameWrapper wrapperAddress,\n        address _trustedETHController,\n        address _trustedReverseRegistrar\n    ) ReverseClaimer(_ens, msg.sender) {\n        ens = _ens;\n        nameWrapper = wrapperAddress;\n        trustedETHController = _trustedETHController;\n        trustedReverseRegistrar = _trustedReverseRegistrar;\n    }\n\n    /**\n     * @dev See {IERC1155-setApprovalForAll}.\n     */\n    function setApprovalForAll(address operator, bool approved) external {\n        require(\n            msg.sender != operator,\n            \"ERC1155: setting approval status for self\"\n        );\n\n        _operatorApprovals[msg.sender][operator] = approved;\n        emit ApprovalForAll(msg.sender, operator, approved);\n    }\n\n    /**\n     * @dev See {IERC1155-isApprovedForAll}.\n     */\n    function isApprovedForAll(\n        address account,\n        address operator\n    ) public view returns (bool) {\n        return _operatorApprovals[account][operator];\n    }\n\n    /**\n     * @dev Approve a delegate to be able to updated records on a node.\n     */\n    function approve(bytes32 node, address delegate, bool approved) external {\n        require(msg.sender != delegate, \"Setting delegate status for self\");\n\n        _tokenApprovals[msg.sender][node][delegate] = approved;\n        emit Approved(msg.sender, node, delegate, approved);\n    }\n\n    /**\n     * @dev Check to see if the delegate has been approved by the owner for the node.\n     */\n    function isApprovedFor(\n        address owner,\n        bytes32 node,\n        address delegate\n    ) public view returns (bool) {\n        return _tokenApprovals[owner][node][delegate];\n    }\n\n    function isAuthorised(bytes32 node) internal view override returns (bool) {\n        if (\n            msg.sender == trustedETHController ||\n            msg.sender == trustedReverseRegistrar\n        ) {\n            return true;\n        }\n        address owner = ens.owner(node);\n        if (owner == address(nameWrapper)) {\n            owner = nameWrapper.ownerOf(uint256(node));\n        }\n        return\n            owner == msg.sender ||\n            isApprovedForAll(owner, msg.sender) ||\n            isApprovedFor(owner, node, msg.sender);\n    }\n\n    function supportsInterface(\n        bytes4 interfaceID\n    )\n        public\n        view\n        override(\n            Multicallable,\n            ABIResolver,\n            AddrResolver,\n            ContentHashResolver,\n            DNSResolver,\n            InterfaceResolver,\n            NameResolver,\n            PubkeyResolver,\n            TextResolver\n        )\n        returns (bool)\n    {\n        return super.supportsInterface(interfaceID);\n    }\n}\n",
  "sourcePath": "@ensdomains/ens-contracts/contracts/resolvers/PublicResolver.sol",
  "compiler": {
    "name": "solc",
    "version": "0.8.17+commit.8df45f5f.Emscripten.clang"
  },
  "schemaVersion": "3.4.16",
  "updatedAt": "2024-05-17T15:51:42.503Z",
  "devdoc": {
    "kind": "dev",
    "methods": {
      "ABI(bytes32,uint256)": {
        "params": {
          "contentTypes": "A bitwise OR of the ABI formats accepted by the caller.",
          "node": "The ENS node to query"
        },
        "returns": {
          "_0": "contentType The content type of the return value",
          "_1": "data The ABI data"
        }
      },
      "addr(bytes32)": {
        "params": {
          "node": "The ENS node to query."
        },
        "returns": {
          "_0": "The associated address."
        }
      },
      "approve(bytes32,address,bool)": {
        "details": "Approve a delegate to be able to updated records on a node."
      },
      "clearRecords(bytes32)": {
        "params": {
          "node": "The node to update."
        }
      },
      "contenthash(bytes32)": {
        "params": {
          "node": "The ENS node to query."
        },
        "returns": {
          "_0": "The associated contenthash."
        }
      },
      "dnsRecord(bytes32,bytes32,uint16)": {
        "params": {
          "name": "the keccak-256 hash of the fully-qualified name for which to fetch the record",
          "node": "the namehash of the node for which to fetch the record",
          "resource": "the ID of the resource as per https://en.wikipedia.org/wiki/List_of_DNS_record_types"
        },
        "returns": {
          "_0": "the DNS record in wire format if present, otherwise empty"
        }
      },
      "hasDNSRecords(bytes32,bytes32)": {
        "params": {
          "name": "the namehash of the node for which to check the records",
          "node": "the namehash of the node for which to check the records"
        }
      },
      "interfaceImplementer(bytes32,bytes4)": {
        "params": {
          "interfaceID": "The EIP 165 interface ID to check for.",
          "node": "The ENS node to query."
        },
        "returns": {
          "_0": "The address that implements this interface, or 0 if the interface is unsupported."
        }
      },
      "isApprovedFor(address,bytes32,address)": {
        "details": "Check to see if the delegate has been approved by the owner for the node."
      },
      "isApprovedForAll(address,address)": {
        "details": "See {IERC1155-isApprovedForAll}."
      },
      "name(bytes32)": {
        "params": {
          "node": "The ENS node to query."
        },
        "returns": {
          "_0": "The associated name."
        }
      },
      "pubkey(bytes32)": {
        "params": {
          "node": "The ENS node to query"
        },
        "returns": {
          "x": "The X coordinate of the curve point for the public key.",
          "y": "The Y coordinate of the curve point for the public key."
        }
      },
      "setABI(bytes32,uint256,bytes)": {
        "params": {
          "contentType": "The content type of the ABI",
          "data": "The ABI data.",
          "node": "The node to update."
        }
      },
      "setAddr(bytes32,address)": {
        "params": {
          "a": "The address to set.",
          "node": "The node to update."
        }
      },
      "setApprovalForAll(address,bool)": {
        "details": "See {IERC1155-setApprovalForAll}."
      },
      "setContenthash(bytes32,bytes)": {
        "params": {
          "hash": "The contenthash to set",
          "node": "The node to update."
        }
      },
      "setDNSRecords(bytes32,bytes)": {
        "params": {
          "data": "the DNS wire format records to set",
          "node": "the namehash of the node for which to set the records"
        }
      },
      "setInterface(bytes32,bytes4,address)": {
        "params": {
          "implementer": "The address of a contract that implements this interface for this node.",
          "interfaceID": "The EIP 165 interface ID.",
          "node": "The node to update."
        }
      },
      "setName(bytes32,string)": {
        "params": {
          "node": "The node to update."
        }
      },
      "setPubkey(bytes32,bytes32,bytes32)": {
        "params": {
          "node": "The ENS node to query",
          "x": "the X coordinate of the curve point for the public key.",
          "y": "the Y coordinate of the curve point for the public key."
        }
      },
      "setText(bytes32,string,string)": {
        "params": {
          "key": "The key to set.",
          "node": "The node to update.",
          "value": "The text data value to set."
        }
      },
      "setZonehash(bytes32,bytes)": {
        "params": {
          "hash": "The zonehash to set",
          "node": "The node to update."
        }
      },
      "text(bytes32,string)": {
        "params": {
          "key": "The text data key to query.",
          "node": "The ENS node to query."
        },
        "returns": {
          "_0": "The associated text data."
        }
      },
      "zonehash(bytes32)": {
        "params": {
          "node": "The ENS node to query."
        },
        "returns": {
          "_0": "The associated contenthash."
        }
      }
    },
    "version": 1
  },
  "userdoc": {
    "kind": "user",
    "methods": {
      "ABI(bytes32,uint256)": {
        "notice": "Returns the ABI associated with an ENS node. Defined in EIP205."
      },
      "addr(bytes32)": {
        "notice": "Returns the address associated with an ENS node."
      },
      "clearRecords(bytes32)": {
        "notice": "Increments the record version associated with an ENS node. May only be called by the owner of that node in the ENS registry."
      },
      "contenthash(bytes32)": {
        "notice": "Returns the contenthash associated with an ENS node."
      },
      "dnsRecord(bytes32,bytes32,uint16)": {
        "notice": "Obtain a DNS record."
      },
      "hasDNSRecords(bytes32,bytes32)": {
        "notice": "Check if a given node has records."
      },
      "interfaceImplementer(bytes32,bytes4)": {
        "notice": "Returns the address of a contract that implements the specified interface for this name. If an implementer has not been set for this interfaceID and name, the resolver will query the contract at `addr()`. If `addr()` is set, a contract exists at that address, and that contract implements EIP165 and returns `true` for the specified interfaceID, its address will be returned."
      },
      "name(bytes32)": {
        "notice": "Returns the name associated with an ENS node, for reverse records. Defined in EIP181."
      },
      "pubkey(bytes32)": {
        "notice": "Returns the SECP256k1 public key associated with an ENS node. Defined in EIP 619."
      },
      "setABI(bytes32,uint256,bytes)": {
        "notice": "Sets the ABI associated with an ENS node. Nodes may have one ABI of each content type. To remove an ABI, set it to the empty string."
      },
      "setAddr(bytes32,address)": {
        "notice": "Sets the address associated with an ENS node. May only be called by the owner of that node in the ENS registry."
      },
      "setContenthash(bytes32,bytes)": {
        "notice": "Sets the contenthash associated with an ENS node. May only be called by the owner of that node in the ENS registry."
      },
      "setDNSRecords(bytes32,bytes)": {
        "notice": "Set one or more DNS records.  Records are supplied in wire-format. Records with the same node/name/resource must be supplied one after the other to ensure the data is updated correctly. For example, if the data was supplied:     a.example.com IN A 1.2.3.4     a.example.com IN A 5.6.7.8     www.example.com IN CNAME a.example.com. then this would store the two A records for a.example.com correctly as a single RRSET, however if the data was supplied:     a.example.com IN A 1.2.3.4     www.example.com IN CNAME a.example.com.     a.example.com IN A 5.6.7.8 then this would store the first A record, the CNAME, then the second A record which would overwrite the first."
      },
      "setInterface(bytes32,bytes4,address)": {
        "notice": "Sets an interface associated with a name. Setting the address to 0 restores the default behaviour of querying the contract at `addr()` for interface support."
      },
      "setName(bytes32,string)": {
        "notice": "Sets the name associated with an ENS node, for reverse records. May only be called by the owner of that node in the ENS registry."
      },
      "setPubkey(bytes32,bytes32,bytes32)": {
        "notice": "Sets the SECP256k1 public key associated with an ENS node."
      },
      "setText(bytes32,string,string)": {
        "notice": "Sets the text data associated with an ENS node and key. May only be called by the owner of that node in the ENS registry."
      },
      "setZonehash(bytes32,bytes)": {
        "notice": "setZonehash sets the hash for the zone. May only be called by the owner of that node in the ENS registry."
      },
      "text(bytes32,string)": {
        "notice": "Returns the text data associated with an ENS node and key."
      },
      "zonehash(bytes32)": {
        "notice": "zonehash obtains the hash for the zone."
      }
    },
    "notice": "A simple resolver anyone can use; only allows the owner of a node to set its address.",
    "version": 1
  }
}