{
  "contractName": "Test",
  "abi": [
    {
      "inputs": [
        {
          "internalType": "address",
          "name": "_resolverAddress",
          "type": "address"
        }
      ],
      "stateMutability": "nonpayable",
      "type": "constructor"
    },
    {
      "inputs": [
        {
          "internalType": "address",
          "name": "",
          "type": "address"
        }
      ],
      "name": "credits",
      "outputs": [
        {
          "internalType": "uint256",
          "name": "",
          "type": "uint256"
        }
      ],
      "stateMutability": "view",
      "type": "function"
    },
    {
      "inputs": [],
      "name": "dailyLimit",
      "outputs": [
        {
          "internalType": "uint256",
          "name": "",
          "type": "uint256"
        }
      ],
      "stateMutability": "view",
      "type": "function"
    },
    {
      "inputs": [],
      "name": "domainResolver",
      "outputs": [
        {
          "internalType": "contract EthDomainResolver",
          "name": "",
          "type": "address"
        }
      ],
      "stateMutability": "view",
      "type": "function"
    },
    {
      "inputs": [
        {
          "internalType": "uint256",
          "name": "",
          "type": "uint256"
        },
        {
          "internalType": "address",
          "name": "",
          "type": "address"
        }
      ],
      "name": "hasVoted",
      "outputs": [
        {
          "internalType": "bool",
          "name": "",
          "type": "bool"
        }
      ],
      "stateMutability": "view",
      "type": "function"
    },
    {
      "inputs": [
        {
          "internalType": "address",
          "name": "",
          "type": "address"
        }
      ],
      "name": "lastSubmission",
      "outputs": [
        {
          "internalType": "uint256",
          "name": "",
          "type": "uint256"
        }
      ],
      "stateMutability": "view",
      "type": "function"
    },
    {
      "inputs": [],
      "name": "newsCount",
      "outputs": [
        {
          "internalType": "uint256",
          "name": "",
          "type": "uint256"
        }
      ],
      "stateMutability": "view",
      "type": "function"
    },
    {
      "inputs": [
        {
          "internalType": "uint256",
          "name": "",
          "type": "uint256"
        }
      ],
      "name": "newsRegistry",
      "outputs": [
        {
          "internalType": "string",
          "name": "title",
          "type": "string"
        },
        {
          "internalType": "string",
          "name": "description",
          "type": "string"
        },
        {
          "internalType": "string",
          "name": "link",
          "type": "string"
        },
        {
          "internalType": "address",
          "name": "publisher",
          "type": "address"
        },
        {
          "internalType": "string",
          "name": "publisherName",
          "type": "string"
        },
        {
          "internalType": "string",
          "name": "publisherDomain",
          "type": "string"
        },
        {
          "internalType": "uint256",
          "name": "timestamp",
          "type": "uint256"
        },
        {
          "internalType": "int256",
          "name": "votes",
          "type": "int256"
        }
      ],
      "stateMutability": "view",
      "type": "function"
    },
    {
      "inputs": [
        {
          "internalType": "address",
          "name": "",
          "type": "address"
        }
      ],
      "name": "profiles",
      "outputs": [
        {
          "internalType": "string",
          "name": "name",
          "type": "string"
        },
        {
          "internalType": "string",
          "name": "ethDomain",
          "type": "string"
        },
        {
          "internalType": "string",
          "name": "web2Page",
          "type": "string"
        },
        {
          "internalType": "int256",
          "name": "reputation",
          "type": "int256"
        }
      ],
      "stateMutability": "view",
      "type": "function"
    },
    {
      "inputs": [
        {
          "internalType": "string",
          "name": "_title",
          "type": "string"
        },
        {
          "internalType": "string",
          "name": "_description",
          "type": "string"
        },
        {
          "internalType": "string",
          "name": "_link",
          "type": "string"
        }
      ],
      "name": "submitNews",
      "outputs": [],
      "stateMutability": "nonpayable",
      "type": "function"
    },
    {
      "inputs": [
        {
          "internalType": "uint256",
          "name": "amount",
          "type": "uint256"
        }
      ],
      "name": "buyCredits",
      "outputs": [],
      "stateMutability": "payable",
      "type": "function"
    },
    {
      "inputs": [
        {
          "internalType": "uint256",
          "name": "newsId",
          "type": "uint256"
        },
        {
          "internalType": "int256",
          "name": "vote",
          "type": "int256"
        }
      ],
      "name": "voteNews",
      "outputs": [],
      "stateMutability": "nonpayable",
      "type": "function"
    },
    {
      "inputs": [],
      "name": "getTop10News",
      "outputs": [
        {
          "components": [
            {
              "internalType": "string",
              "name": "title",
              "type": "string"
            },
            {
              "internalType": "string",
              "name": "description",
              "type": "string"
            },
            {
              "internalType": "string",
              "name": "link",
              "type": "string"
            },
            {
              "internalType": "address",
              "name": "publisher",
              "type": "address"
            },
            {
              "internalType": "string",
              "name": "publisherName",
              "type": "string"
            },
            {
              "internalType": "string",
              "name": "publisherDomain",
              "type": "string"
            },
            {
              "internalType": "uint256",
              "name": "timestamp",
              "type": "uint256"
            },
            {
              "internalType": "int256",
              "name": "votes",
              "type": "int256"
            }
          ],
          "internalType": "struct Test.News[]",
          "name": "",
          "type": "tuple[]"
        },
        {
          "internalType": "uint256[]",
          "name": "",
          "type": "uint256[]"
        }
      ],
      "stateMutability": "view",
      "type": "function"
    }
  ],
  "bytecode": "0x608060405260016007553480156200001657600080fd5b50604051620034f5380380620034f583398181016040528101906200003c919062000133565b806040516200004b90620000bb565b62000057919062000176565b604051809103906000f08015801562000074573d6000803e3d6000fd5b506000806101000a81548173ffffffffffffffffffffffffffffffffffffffff021916908373ffffffffffffffffffffffffffffffffffffffff1602179055505062000193565b610a228062002ad383390190565b600080fd5b600073ffffffffffffffffffffffffffffffffffffffff82169050919050565b6000620000fb82620000ce565b9050919050565b6200010d81620000ee565b81146200011957600080fd5b50565b6000815190506200012d8162000102565b92915050565b6000602082840312156200014c576200014b620000c9565b5b60006200015c848285016200011c565b91505092915050565b6200017081620000ee565b82525050565b60006020820190506200018d600083018462000165565b92915050565b61293080620001a36000396000f3fe6080604052600436106100a75760003560e01c80639a8e3d30116100645780639a8e3d30146101c45780639b37e131146101ed578063a74dcd4814610218578063bbe156271461025c578063d228f5531461029c578063fe5ff468146102c5576100a7565b80630c4dfe3f146100ac5780633fe2e324146100c857806343859632146100f457806367eeba0c146101315780636c70679b1461015c5780639981d6d314610199575b600080fd5b6100c660048036038101906100c19190611918565b610302565b005b3480156100d457600080fd5b506100dd61035b565b6040516100eb929190611c7b565b60405180910390f35b34801561010057600080fd5b5061011b60048036038101906101169190611cde565b610b00565b6040516101289190611d39565b60405180910390f35b34801561013d57600080fd5b50610146610b2f565b6040516101539190611d63565b60405180910390f35b34801561016857600080fd5b50610183600480360381019061017e9190611d7e565b610b35565b6040516101909190611d63565b60405180910390f35b3480156101a557600080fd5b506101ae610b4d565b6040516101bb9190611d63565b60405180910390f35b3480156101d057600080fd5b506101eb60048036038101906101e69190611dd7565b610b53565b005b3480156101f957600080fd5b50610202610d3c565b60405161020f9190611e76565b60405180910390f35b34801561022457600080fd5b5061023f600480360381019061023a9190611918565b610d60565b604051610253989796959493929190611ef9565b60405180910390f35b34801561026857600080fd5b50610283600480360381019061027e9190611d7e565b611070565b6040516102939493929190611f9a565b60405180910390f35b3480156102a857600080fd5b506102c360048036038101906102be9190612129565b611238565b005b3480156102d157600080fd5b506102ec60048036038101906102e79190611d7e565b61185b565b6040516102f99190611d63565b60405180910390f35b80600260003373ffffffffffffffffffffffffffffffffffffffff1673ffffffffffffffffffffffffffffffffffffffff168152602001908152602001600020600082825461035191906121ff565b9250508190555050565b606080600060065467ffffffffffffffff81111561037c5761037b611ffe565b5b6040519080825280602002602001820160405280156103b557816020015b6103a2611873565b81526020019060019003908161039a5790505b509050600060065467ffffffffffffffff8111156103d6576103d5611ffe565b5b6040519080825280602002602001820160405280156104045781602001602082028036833780820191505090505b50905060005b6006548110156107c857600160008281526020019081526020016000206040518061010001604052908160008201805461044390612262565b80601f016020809104026020016040519081016040528092919081815260200182805461046f90612262565b80156104bc5780601f10610491576101008083540402835291602001916104bc565b820191906000526020600020905b81548152906001019060200180831161049f57829003601f168201915b505050505081526020016001820180546104d590612262565b80601f016020809104026020016040519081016040528092919081815260200182805461050190612262565b801561054e5780601f106105235761010080835404028352916020019161054e565b820191906000526020600020905b81548152906001019060200180831161053157829003601f168201915b5050505050815260200160028201805461056790612262565b80601f016020809104026020016040519081016040528092919081815260200182805461059390612262565b80156105e05780601f106105b5576101008083540402835291602001916105e0565b820191906000526020600020905b8154815290600101906020018083116105c357829003601f168201915b505050505081526020016003820160009054906101000a900473ffffffffffffffffffffffffffffffffffffffff1673ffffffffffffffffffffffffffffffffffffffff1673ffffffffffffffffffffffffffffffffffffffff16815260200160048201805461064f90612262565b80601f016020809104026020016040519081016040528092919081815260200182805461067b90612262565b80156106c85780601f1061069d576101008083540402835291602001916106c8565b820191906000526020600020905b8154815290600101906020018083116106ab57829003601f168201915b505050505081526020016005820180546106e190612262565b80601f016020809104026020016040519081016040528092919081815260200182805461070d90612262565b801561075a5780601f1061072f5761010080835404028352916020019161075a565b820191906000526020600020905b81548152906001019060200180831161073d57829003601f168201915b505050505081526020016006820154815260200160078201548152505083828151811061078a57610789612293565b5b6020026020010181905250808282815181106107a9576107a8612293565b5b60200260200101818152505080806107c0906122c2565b91505061040a565b5060005b60016006546107db919061230a565b8110156109a05760005b6001826006546107f5919061230a565b6107ff919061230a565b81101561098c578360018261081491906121ff565b8151811061082557610824612293565b5b602002602001015160e0015184828151811061084457610843612293565b5b602002602001015160e00151121561097957600084828151811061086b5761086a612293565b5b602002602001015190508460018361088391906121ff565b8151811061089457610893612293565b5b60200260200101518583815181106108af576108ae612293565b5b602002602001018190525080856001846108c991906121ff565b815181106108da576108d9612293565b5b602002602001018190525060008483815181106108fa576108f9612293565b5b602002602001015190508460018461091291906121ff565b8151811061092357610922612293565b5b602002602001015185848151811061093e5761093d612293565b5b602002602001018181525050808560018561095991906121ff565b8151811061096a57610969612293565b5b60200260200101818152505050505b8080610984906122c2565b9150506107e5565b508080610998906122c2565b9150506107cc565b506000600a600654106109b457600a6109b8565b6006545b905060008167ffffffffffffffff8111156109d6576109d5611ffe565b5b604051908082528060200260200182016040528015610a0f57816020015b6109fc611873565b8152602001906001900390816109f45790505b50905060008267ffffffffffffffff811115610a2e57610a2d611ffe565b5b604051908082528060200260200182016040528015610a5c5781602001602082028036833780820191505090505b50905060005b83811015610af057858181518110610a7d57610a7c612293565b5b6020026020010151838281518110610a9857610a97612293565b5b6020026020010181905250848181518110610ab657610ab5612293565b5b6020026020010151828281518110610ad157610ad0612293565b5b6020026020010181815250508080610ae8906122c2565b915050610a62565b5081819650965050505050509091565b60056020528160005260406000206020528060005260406000206000915091509054906101000a900460ff1681565b60075481565b60036020528060005260406000206000915090505481565b60065481565b6006548210610b97576040517f08c379a0000000000000000000000000000000000000000000000000000000008152600401610b8e9061238a565b60405180910390fd5b6005600083815260200190815260200160002060003373ffffffffffffffffffffffffffffffffffffffff1673ffffffffffffffffffffffffffffffffffffffff16815260200190815260200160002060009054906101000a900460ff1615610c35576040517f08c379a0000000000000000000000000000000000000000000000000000000008152600401610c2c906123f6565b60405180910390fd5b6001811480610c6357507fffffffffffffffffffffffffffffffffffffffffffffffffffffffffffffffff81145b610ca2576040517f08c379a0000000000000000000000000000000000000000000000000000000008152600401610c9990612462565b60405180910390fd5b80600160008481526020019081526020016000206007016000828254610cc89190612482565b9250508190555060016005600084815260200190815260200160002060003373ffffffffffffffffffffffffffffffffffffffff1673ffffffffffffffffffffffffffffffffffffffff16815260200190815260200160002060006101000a81548160ff0219169083151502179055505050565b60008054906101000a900473ffffffffffffffffffffffffffffffffffffffff1681565b6001602052806000526040600020600091509050806000018054610d8390612262565b80601f0160208091040260200160405190810160405280929190818152602001828054610daf90612262565b8015610dfc5780601f10610dd157610100808354040283529160200191610dfc565b820191906000526020600020905b815481529060010190602001808311610ddf57829003601f168201915b505050505090806001018054610e1190612262565b80601f0160208091040260200160405190810160405280929190818152602001828054610e3d90612262565b8015610e8a5780601f10610e5f57610100808354040283529160200191610e8a565b820191906000526020600020905b815481529060010190602001808311610e6d57829003601f168201915b505050505090806002018054610e9f90612262565b80601f0160208091040260200160405190810160405280929190818152602001828054610ecb90612262565b8015610f185780601f10610eed57610100808354040283529160200191610f18565b820191906000526020600020905b815481529060010190602001808311610efb57829003601f168201915b5050505050908060030160009054906101000a900473ffffffffffffffffffffffffffffffffffffffff1690806004018054610f5390612262565b80601f0160208091040260200160405190810160405280929190818152602001828054610f7f90612262565b8015610fcc5780601f10610fa157610100808354040283529160200191610fcc565b820191906000526020600020905b815481529060010190602001808311610faf57829003601f168201915b505050505090806005018054610fe190612262565b80601f016020809104026020016040519081016040528092919081815260200182805461100d90612262565b801561105a5780601f1061102f5761010080835404028352916020019161105a565b820191906000526020600020905b81548152906001019060200180831161103d57829003601f168201915b5050505050908060060154908060070154905088565b600460205280600052604060002060009150905080600001805461109390612262565b80601f01602080910402602001604051908101604052809291908181526020018280546110bf90612262565b801561110c5780601f106110e15761010080835404028352916020019161110c565b820191906000526020600020905b8154815290600101906020018083116110ef57829003601f168201915b50505050509080600101805461112190612262565b80601f016020809104026020016040519081016040528092919081815260200182805461114d90612262565b801561119a5780601f1061116f5761010080835404028352916020019161119a565b820191906000526020600020905b81548152906001019060200180831161117d57829003601f168201915b5050505050908060020180546111af90612262565b80601f01602080910402602001604051908101604052809291908181526020018280546111db90612262565b80156112285780601f106111fd57610100808354040283529160200191611228565b820191906000526020600020905b81548152906001019060200180831161120b57829003601f168201915b5050505050908060030154905084565b6000600260003373ffffffffffffffffffffffffffffffffffffffff1673ffffffffffffffffffffffffffffffffffffffff168152602001908152602001600020541480156112c657506000600360003373ffffffffffffffffffffffffffffffffffffffff1673ffffffffffffffffffffffffffffffffffffffff16815260200190815260200160002054145b15611311576005600260003373ffffffffffffffffffffffffffffffffffffffff1673ffffffffffffffffffffffffffffffffffffffff168152602001908152602001600020819055505b6000600260003373ffffffffffffffffffffffffffffffffffffffff1673ffffffffffffffffffffffffffffffffffffffff1681526020019081526020016000205411611393576040517f08c379a000000000000000000000000000000000000000000000000000000000815260040161138a90612512565b60405180910390fd5b3373ffffffffffffffffffffffffffffffffffffffff1660008054906101000a900473ffffffffffffffffffffffffffffffffffffffff1673ffffffffffffffffffffffffffffffffffffffff166375289ddf600460003373ffffffffffffffffffffffffffffffffffffffff1673ffffffffffffffffffffffffffffffffffffffff1681526020019081526020016000206001016040518263ffffffff1660e01b815260040161144491906125cb565b602060405180830381865afa158015611461573d6000803e3d6000fd5b505050506040513d601f19601f820116820180604052508101906114859190612602565b73ffffffffffffffffffffffffffffffffffffffff16146114db576040517f08c379a00000000000000000000000000000000000000000000000000000000081526004016114d29061267b565b60405180910390fd5b6040518061010001604052808481526020018381526020018281526020013373ffffffffffffffffffffffffffffffffffffffff168152602001600460003373ffffffffffffffffffffffffffffffffffffffff1673ffffffffffffffffffffffffffffffffffffffff168152602001908152602001600020600001805461156290612262565b80601f016020809104026020016040519081016040528092919081815260200182805461158e90612262565b80156115db5780601f106115b0576101008083540402835291602001916115db565b820191906000526020600020905b8154815290600101906020018083116115be57829003601f168201915b50505050508152602001600460003373ffffffffffffffffffffffffffffffffffffffff1673ffffffffffffffffffffffffffffffffffffffff168152602001908152602001600020600101805461163290612262565b80601f016020809104026020016040519081016040528092919081815260200182805461165e90612262565b80156116ab5780601f10611680576101008083540402835291602001916116ab565b820191906000526020600020905b81548152906001019060200180831161168e57829003601f168201915b50505050508152602001428152602001600081525060016000600654815260200190815260200160002060008201518160000190816116ea9190612828565b5060208201518160010190816117009190612828565b5060408201518160020190816117169190612828565b5060608201518160030160006101000a81548173ffffffffffffffffffffffffffffffffffffffff021916908373ffffffffffffffffffffffffffffffffffffffff16021790555060808201518160040190816117739190612828565b5060a08201518160050190816117899190612828565b5060c0820151816006015560e0820151816007015590505042600360003373ffffffffffffffffffffffffffffffffffffffff1673ffffffffffffffffffffffffffffffffffffffff168152602001908152602001600020819055506001600260003373ffffffffffffffffffffffffffffffffffffffff1673ffffffffffffffffffffffffffffffffffffffff1681526020019081526020016000206000828254611835919061230a565b9250508190555060016006600082825461184f91906121ff565b92505081905550505050565b60026020528060005260406000206000915090505481565b604051806101000160405280606081526020016060815260200160608152602001600073ffffffffffffffffffffffffffffffffffffffff168152602001606081526020016060815260200160008152602001600081525090565b6000604051905090565b600080fd5b600080fd5b6000819050919050565b6118f5816118e2565b811461190057600080fd5b50565b600081359050611912816118ec565b92915050565b60006020828403121561192e5761192d6118d8565b5b600061193c84828501611903565b91505092915050565b600081519050919050565b600082825260208201905092915050565b6000819050602082019050919050565b600081519050919050565b600082825260208201905092915050565b60005b838110156119ab578082015181840152602081019050611990565b60008484015250505050565b6000601f19601f8301169050919050565b60006119d382611971565b6119dd818561197c565b93506119ed81856020860161198d565b6119f6816119b7565b840191505092915050565b600073ffffffffffffffffffffffffffffffffffffffff82169050919050565b6000611a2c82611a01565b9050919050565b611a3c81611a21565b82525050565b611a4b816118e2565b82525050565b6000819050919050565b611a6481611a51565b82525050565b6000610100830160008301518482036000860152611a8882826119c8565b91505060208301518482036020860152611aa282826119c8565b91505060408301518482036040860152611abc82826119c8565b9150506060830151611ad16060860182611a33565b5060808301518482036080860152611ae982826119c8565b91505060a083015184820360a0860152611b0382826119c8565b91505060c0830151611b1860c0860182611a42565b5060e0830151611b2b60e0860182611a5b565b508091505092915050565b6000611b428383611a6a565b905092915050565b6000602082019050919050565b6000611b6282611945565b611b6c8185611950565b935083602082028501611b7e85611961565b8060005b85811015611bba5784840389528151611b9b8582611b36565b9450611ba683611b4a565b925060208a01995050600181019050611b82565b50829750879550505050505092915050565b600081519050919050565b600082825260208201905092915050565b6000819050602082019050919050565b6000611c048383611a42565b60208301905092915050565b6000602082019050919050565b6000611c2882611bcc565b611c328185611bd7565b9350611c3d83611be8565b8060005b83811015611c6e578151611c558882611bf8565b9750611c6083611c10565b925050600181019050611c41565b5085935050505092915050565b60006040820190508181036000830152611c958185611b57565b90508181036020830152611ca98184611c1d565b90509392505050565b611cbb81611a21565b8114611cc657600080fd5b50565b600081359050611cd881611cb2565b92915050565b60008060408385031215611cf557611cf46118d8565b5b6000611d0385828601611903565b9250506020611d1485828601611cc9565b9150509250929050565b60008115159050919050565b611d3381611d1e565b82525050565b6000602082019050611d4e6000830184611d2a565b92915050565b611d5d816118e2565b82525050565b6000602082019050611d786000830184611d54565b92915050565b600060208284031215611d9457611d936118d8565b5b6000611da284828501611cc9565b91505092915050565b611db481611a51565b8114611dbf57600080fd5b50565b600081359050611dd181611dab565b92915050565b60008060408385031215611dee57611ded6118d8565b5b6000611dfc85828601611903565b9250506020611e0d85828601611dc2565b9150509250929050565b6000819050919050565b6000611e3c611e37611e3284611a01565b611e17565b611a01565b9050919050565b6000611e4e82611e21565b9050919050565b6000611e6082611e43565b9050919050565b611e7081611e55565b82525050565b6000602082019050611e8b6000830184611e67565b92915050565b600082825260208201905092915050565b6000611ead82611971565b611eb78185611e91565b9350611ec781856020860161198d565b611ed0816119b7565b840191505092915050565b611ee481611a21565b82525050565b611ef381611a51565b82525050565b6000610100820190508181036000830152611f14818b611ea2565b90508181036020830152611f28818a611ea2565b90508181036040830152611f3c8189611ea2565b9050611f4b6060830188611edb565b8181036080830152611f5d8187611ea2565b905081810360a0830152611f718186611ea2565b9050611f8060c0830185611d54565b611f8d60e0830184611eea565b9998505050505050505050565b60006080820190508181036000830152611fb48187611ea2565b90508181036020830152611fc88186611ea2565b90508181036040830152611fdc8185611ea2565b9050611feb6060830184611eea565b95945050505050565b600080fd5b600080fd5b7f4e487b7100000000000000000000000000000000000000000000000000000000600052604160045260246000fd5b612036826119b7565b810181811067ffffffffffffffff8211171561205557612054611ffe565b5b80604052505050565b60006120686118ce565b9050612074828261202d565b919050565b600067ffffffffffffffff82111561209457612093611ffe565b5b61209d826119b7565b9050602081019050919050565b82818337600083830152505050565b60006120cc6120c784612079565b61205e565b9050828152602081018484840111156120e8576120e7611ff9565b5b6120f38482856120aa565b509392505050565b600082601f8301126121105761210f611ff4565b5b81356121208482602086016120b9565b91505092915050565b600080600060608486031215612142576121416118d8565b5b600084013567ffffffffffffffff8111156121605761215f6118dd565b5b61216c868287016120fb565b935050602084013567ffffffffffffffff81111561218d5761218c6118dd565b5b612199868287016120fb565b925050604084013567ffffffffffffffff8111156121ba576121b96118dd565b5b6121c6868287016120fb565b9150509250925092565b7f4e487b7100000000000000000000000000000000000000000000000000000000600052601160045260246000fd5b600061220a826118e2565b9150612215836118e2565b925082820190508082111561222d5761222c6121d0565b5b92915050565b7f4e487b7100000000000000000000000000000000000000000000000000000000600052602260045260246000fd5b6000600282049050600182168061227a57607f821691505b60208210810361228d5761228c612233565b5b50919050565b7f4e487b7100000000000000000000000000000000000000000000000000000000600052603260045260246000fd5b60006122cd826118e2565b91507fffffffffffffffffffffffffffffffffffffffffffffffffffffffffffffffff82036122ff576122fe6121d0565b5b600182019050919050565b6000612315826118e2565b9150612320836118e2565b9250828203905081811115612338576123376121d0565b5b92915050565b7f496e76616c6964206e6577732049440000000000000000000000000000000000600082015250565b6000612374600f83611e91565b915061237f8261233e565b602082019050919050565b600060208201905081810360008301526123a381612367565b9050919050565b7f416c726561647920766f74656400000000000000000000000000000000000000600082015250565b60006123e0600d83611e91565b91506123eb826123aa565b602082019050919050565b6000602082019050818103600083015261240f816123d3565b9050919050565b7f496e76616c696420766f74652076616c75650000000000000000000000000000600082015250565b600061244c601283611e91565b915061245782612416565b602082019050919050565b6000602082019050818103600083015261247b8161243f565b9050919050565b600061248d82611a51565b915061249883611a51565b9250828201905082811215600083121683821260008412151617156124c0576124bf6121d0565b5b92915050565b7f496e73756666696369656e742063726564697473000000000000000000000000600082015250565b60006124fc601483611e91565b9150612507826124c6565b602082019050919050565b6000602082019050818103600083015261252b816124ef565b9050919050565b60008190508160005260206000209050919050565b6000815461255481612262565b61255e8186611e91565b94506001821660008114612579576001811461258f576125c2565b60ff1983168652811515602002860193506125c2565b61259885612532565b60005b838110156125ba5781548189015260018201915060208101905061259b565b808801955050505b50505092915050565b600060208201905081810360008301526125e58184612547565b905092915050565b6000815190506125fc81611cb2565b92915050565b600060208284031215612618576126176118d8565b5b6000612626848285016125ed565b91505092915050565b7f496e76616c696420454e5320646f6d61696e0000000000000000000000000000600082015250565b6000612665601283611e91565b91506126708261262f565b602082019050919050565b6000602082019050818103600083015261269481612658565b9050919050565b60006020601f8301049050919050565b600082821b905092915050565b6000600883026126e87fffffffffffffffffffffffffffffffffffffffffffffffffffffffffffffffff826126ab565b6126f286836126ab565b95508019841693508086168417925050509392505050565b600061272561272061271b846118e2565b611e17565b6118e2565b9050919050565b6000819050919050565b61273f8361270a565b61275361274b8261272c565b8484546126b8565b825550505050565b600090565b61276861275b565b612773818484612736565b505050565b5b818110156127975761278c600082612760565b600181019050612779565b5050565b601f8211156127dc576127ad81612532565b6127b68461269b565b810160208510156127c5578190505b6127d96127d18561269b565b830182612778565b50505b505050565b600082821c905092915050565b60006127ff600019846008026127e1565b1980831691505092915050565b600061281883836127ee565b9150826002028217905092915050565b61283182611971565b67ffffffffffffffff81111561284a57612849611ffe565b5b6128548254612262565b61285f82828561279b565b600060209050601f8311600181146128925760008415612880578287015190505b61288a858261280c565b8655506128f2565b601f1984166128a086612532565b60005b828110156128c8578489015182556001820191506020850194506020810190506128a3565b868310156128e557848901516128e1601f8916826127ee565b8355505b6001600288020188555050505b50505050505056fea264697066735822122073d251c44af95d33b102e3bc57e64cae023d2f625af5792df6152027c9b5f7a864736f6c63430008110033608060405234801561001057600080fd5b50604051610a22380380610a22833981810160405281019061003291906100db565b806000806101000a81548173ffffffffffffffffffffffffffffffffffffffff021916908373ffffffffffffffffffffffffffffffffffffffff16021790555050610108565b600080fd5b600073ffffffffffffffffffffffffffffffffffffffff82169050919050565b60006100a88261007d565b9050919050565b6100b88161009d565b81146100c357600080fd5b50565b6000815190506100d5816100af565b92915050565b6000602082840312156100f1576100f0610078565b5b60006100ff848285016100c6565b91505092915050565b61090b806101176000396000f3fe608060405234801561001057600080fd5b506004361061004c5760003560e01c806304f3bcec14610051578063098799621461006f57806375289ddf1461009f5780639428522a146100cf575b600080fd5b6100596100ff565b6040516100669190610402565b60405180910390f35b61008960048036038101906100849190610577565b610123565b60405161009691906105d9565b60405180910390f35b6100b960048036038101906100b49190610577565b610209565b6040516100c69190610615565b60405180910390f35b6100e960048036038101906100e49190610577565b610303565b6040516100f691906105d9565b60405180910390f35b60008054906101000a900473ffffffffffffffffffffffffffffffffffffffff1681565b6000806000801b90506000835103610141576000801b915050610204565b600083905060008151905060005b8160ff168160ff1610156101c15783838260ff168151811061017457610173610630565b5b602001015160f81c60f81b6040516020016101909291906106cd565b6040516020818303038152906040528051906020012060001c60001b935080806101b990610735565b91505061014f565b50600063deadbeef60001b905083816040516020016101e192919061075e565b6040516020818303038152906040528051906020012060001c60001b9450505050505b919050565b60008061021583610303565b905060008060009054906101000a900473ffffffffffffffffffffffffffffffffffffffff1673ffffffffffffffffffffffffffffffffffffffff16633b3b57de836040518263ffffffff1660e01b815260040161027391906105d9565b602060405180830381865afa158015610290573d6000803e3d6000fd5b505050506040513d601f19601f820116820180604052508101906102b491906107c8565b90506000816040516020016102c9919061083d565b604051602081830303815290604052905060008151036102ef57600093505050506102fe565b6102f881610315565b93505050505b919050565b600061030e82610123565b9050919050565b60006103208261032a565b60601c9050919050565b6000601482511015610371576040517f08c379a0000000000000000000000000000000000000000000000000000000008152600401610368906108b5565b60405180910390fd5b60006014830151905080915050919050565b600073ffffffffffffffffffffffffffffffffffffffff82169050919050565b6000819050919050565b60006103c86103c36103be84610383565b6103a3565b610383565b9050919050565b60006103da826103ad565b9050919050565b60006103ec826103cf565b9050919050565b6103fc816103e1565b82525050565b600060208201905061041760008301846103f3565b92915050565b6000604051905090565b600080fd5b600080fd5b600080fd5b600080fd5b6000601f19601f8301169050919050565b7f4e487b7100000000000000000000000000000000000000000000000000000000600052604160045260246000fd5b6104848261043b565b810181811067ffffffffffffffff821117156104a3576104a261044c565b5b80604052505050565b60006104b661041d565b90506104c2828261047b565b919050565b600067ffffffffffffffff8211156104e2576104e161044c565b5b6104eb8261043b565b9050602081019050919050565b82818337600083830152505050565b600061051a610515846104c7565b6104ac565b90508281526020810184848401111561053657610535610436565b5b6105418482856104f8565b509392505050565b600082601f83011261055e5761055d610431565b5b813561056e848260208601610507565b91505092915050565b60006020828403121561058d5761058c610427565b5b600082013567ffffffffffffffff8111156105ab576105aa61042c565b5b6105b784828501610549565b91505092915050565b6000819050919050565b6105d3816105c0565b82525050565b60006020820190506105ee60008301846105ca565b92915050565b60006105ff82610383565b9050919050565b61060f816105f4565b82525050565b600060208201905061062a6000830184610606565b92915050565b7f4e487b7100000000000000000000000000000000000000000000000000000000600052603260045260246000fd5b6000819050919050565b61067a610675826105c0565b61065f565b82525050565b60007fff0000000000000000000000000000000000000000000000000000000000000082169050919050565b6000819050919050565b6106c76106c282610680565b6106ac565b82525050565b60006106d98285610669565b6020820191506106e982846106b6565b6001820191508190509392505050565b7f4e487b7100000000000000000000000000000000000000000000000000000000600052601160045260246000fd5b600060ff82169050919050565b600061074082610728565b915060ff8203610753576107526106f9565b5b600182019050919050565b600061076a8285610669565b60208201915061077a8284610669565b6020820191508190509392505050565b600061079582610383565b9050919050565b6107a58161078a565b81146107b057600080fd5b50565b6000815190506107c28161079c565b92915050565b6000602082840312156107de576107dd610427565b5b60006107ec848285016107b3565b91505092915050565b60008160601b9050919050565b600061080d826107f5565b9050919050565b600061081f82610802565b9050919050565b6108376108328261078a565b610814565b82525050565b60006108498284610826565b60148201915081905092915050565b600082825260208201905092915050565b7f496e70757420746f6f2073686f72740000000000000000000000000000000000600082015250565b600061089f600f83610858565b91506108aa82610869565b602082019050919050565b600060208201905081810360008301526108ce81610892565b905091905056fea264697066735822122004bfab58552c621a1fa6c849b4bc4b70b90fa3acaadc19ab4cdf4e75cad394c464736f6c63430008110033",
  "immutableReferences": {},
  "source": "// SPDX-License-Identifier: MIT\n\npragma solidity ^0.8.17;\n\nimport \"./Solver.sol\";\n\ncontract Test {\n    EthDomainResolver public domainResolver;\n\n    constructor(address _resolverAddress) {\n        domainResolver = new EthDomainResolver(_resolverAddress);\n    }\n\n    struct News {\n        string title;\n        string description;\n        string link;\n        address publisher;\n        string publisherName;\n        string publisherDomain;\n        uint256 timestamp;\n        int256 votes; // New field to store votes\n    }\n\n    struct Profile {\n        string name;\n        string ethDomain; // whit ens protocol\n        string web2Page;\n        int256 reputation; // not used for now\n    }\n\n    mapping(uint256 => News) public newsRegistry;\n    mapping(address => uint256) public credits;\n    mapping(address => uint256) public lastSubmission;\n    mapping(address => Profile) public profiles;\n    mapping(uint256 => mapping(address => bool)) public hasVoted; // Tracks if an address has voted on a specific news item\n\n    uint256 public newsCount;\n    uint256 public dailyLimit = 1;\n\n    function submitNews(\n        string memory _title,\n        string memory _description,\n        string memory _link\n    ) public {\n        // Check if the user is new and initialize credits if they are\n        if (credits[msg.sender] == 0 && lastSubmission[msg.sender] == 0) {\n            credits[msg.sender] = 5;\n        }\n\n        require(credits[msg.sender] > 0, \"Insufficient credits\");\n        // require(block.timestamp - lastSubmission[msg.sender] > 1 days, \"Daily submission limit reached\");\n\n        // ensResolve(profiles[msg.sender].ethDomain) == profiles[msg.sender]\n        require(\n            domainResolver.resolveAddressFromDomain(profiles[msg.sender].ethDomain) ==\n                msg.sender,\n            \"Invalid ENS domain\"\n        );\n\n        newsRegistry[newsCount] = News({\n            title: _title,\n            description: _description,\n            link: _link,\n            publisher: msg.sender, // msg.sender -> address of the publisher this using ens to get the address of the publisher\n            publisherName: profiles[msg.sender].name,\n            publisherDomain: profiles[msg.sender].ethDomain,\n            timestamp: block.timestamp,\n            votes: 0 // Initialize votes to 0\n        });\n\n        lastSubmission[msg.sender] = block.timestamp;\n        credits[msg.sender] -= 1;\n        newsCount += 1;\n    }\n\n    function buyCredits(uint256 amount) public payable {\n        // Implement credit purchasing logic\n        credits[msg.sender] += amount;\n    }\n\n    function voteNews(uint256 newsId, int256 vote) public {\n        // vote is -1 or 1\n        require(newsId < newsCount, \"Invalid news ID\");\n        require(!hasVoted[newsId][msg.sender], \"Already voted\");\n        require(vote == 1 || vote == -1, \"Invalid vote value\");\n\n        newsRegistry[newsId].votes += vote;\n        hasVoted[newsId][msg.sender] = true;\n    }\n\n    // function getMostImportantNews() public view returns (News memory) {\n    //     uint256 maxVotes = 0;\n    //     uint256 mostImportantNewsId = 0;\n\n    //     for (uint256 i = 0; i < newsCount; i++) {\n    //         if (newsRegistry[i].votes > maxVotes) {\n    //             maxVotes = newsRegistry[i].votes;\n    //             mostImportantNewsId = i;\n    //         }\n    //     }\n\n    //     return newsRegistry[mostImportantNewsId];\n    // }\n\n    function getTop10News()\n        public\n        view\n        returns (News[] memory, uint256[] memory)\n    {\n        News[] memory sortedNews = new News[](newsCount);\n        uint256[] memory sortedNewsIds = new uint256[](newsCount);\n\n        // Copy news items and their IDs to temporary arrays for sorting\n        for (uint256 i = 0; i < newsCount; i++) {\n            sortedNews[i] = newsRegistry[i];\n            sortedNewsIds[i] = i;\n        }\n\n        // Sort news by votes using a simple bubble sort\n        for (uint256 i = 0; i < newsCount - 1; i++) {\n            for (uint256 j = 0; j < newsCount - i - 1; j++) {\n                if (sortedNews[j].votes < sortedNews[j + 1].votes) {\n                    // Swap news items\n                    News memory tempNews = sortedNews[j];\n                    sortedNews[j] = sortedNews[j + 1];\n                    sortedNews[j + 1] = tempNews;\n\n                    // Swap their IDs\n                    uint256 tempId = sortedNewsIds[j];\n                    sortedNewsIds[j] = sortedNewsIds[j + 1];\n                    sortedNewsIds[j + 1] = tempId;\n                }\n            }\n        }\n\n        // Create arrays for the top 10 news items and their IDs\n        uint256 topCount = newsCount < 10 ? newsCount : 10;\n        News[] memory top10News = new News[](topCount);\n        uint256[] memory top10NewsIds = new uint256[](topCount);\n\n        for (uint256 i = 0; i < topCount; i++) {\n            top10News[i] = sortedNews[i];\n            top10NewsIds[i] = sortedNewsIds[i];\n        }\n\n        return (top10News, top10NewsIds);\n    }\n}\n",
  "sourcePath": "/home/italo/code/projects/blockchain/repo-test-hackathon-blockchain/contracts/Test.sol",
  "compiler": {
    "name": "solc",
    "version": "0.8.17+commit.8df45f5f.Emscripten.clang"
  },
  "schemaVersion": "3.4.16",
  "updatedAt": "2024-05-17T15:51:42.544Z",
  "devdoc": {
    "kind": "dev",
    "methods": {},
    "version": 1
  },
  "userdoc": {
    "kind": "user",
    "methods": {},
    "version": 1
  }
}