{
  "contractName": "Test",
  "abi": [
    {
      "inputs": [
        {
          "internalType": "address",
          "name": "",
          "type": "address"
        }
      ],
      "name": "credits",
      "outputs": [
        {
          "internalType": "uint256",
          "name": "",
          "type": "uint256"
        }
      ],
      "stateMutability": "view",
      "type": "function",
      "constant": true
    },
    {
      "inputs": [],
      "name": "dailyLimit",
      "outputs": [
        {
          "internalType": "uint256",
          "name": "",
          "type": "uint256"
        }
      ],
      "stateMutability": "view",
      "type": "function",
      "constant": true
    },
    {
      "inputs": [
        {
          "internalType": "uint256",
          "name": "",
          "type": "uint256"
        },
        {
          "internalType": "address",
          "name": "",
          "type": "address"
        }
      ],
      "name": "hasVoted",
      "outputs": [
        {
          "internalType": "bool",
          "name": "",
          "type": "bool"
        }
      ],
      "stateMutability": "view",
      "type": "function",
      "constant": true
    },
    {
      "inputs": [
        {
          "internalType": "address",
          "name": "",
          "type": "address"
        }
      ],
      "name": "lastSubmission",
      "outputs": [
        {
          "internalType": "uint256",
          "name": "",
          "type": "uint256"
        }
      ],
      "stateMutability": "view",
      "type": "function",
      "constant": true
    },
    {
      "inputs": [],
      "name": "newsCount",
      "outputs": [
        {
          "internalType": "uint256",
          "name": "",
          "type": "uint256"
        }
      ],
      "stateMutability": "view",
      "type": "function",
      "constant": true
    },
    {
      "inputs": [
        {
          "internalType": "uint256",
          "name": "",
          "type": "uint256"
        }
      ],
      "name": "newsRegistry",
      "outputs": [
        {
          "internalType": "string",
          "name": "title",
          "type": "string"
        },
        {
          "internalType": "string",
          "name": "description",
          "type": "string"
        },
        {
          "internalType": "string",
          "name": "link",
          "type": "string"
        },
        {
          "internalType": "address",
          "name": "publisher",
          "type": "address"
        },
        {
          "internalType": "uint256",
          "name": "timestamp",
          "type": "uint256"
        },
        {
          "internalType": "uint256",
          "name": "votes",
          "type": "uint256"
        }
      ],
      "stateMutability": "view",
      "type": "function",
      "constant": true
    },
    {
      "inputs": [
        {
          "internalType": "string",
          "name": "_title",
          "type": "string"
        },
        {
          "internalType": "string",
          "name": "_description",
          "type": "string"
        },
        {
          "internalType": "string",
          "name": "_link",
          "type": "string"
        }
      ],
      "name": "submitNews",
      "outputs": [],
      "stateMutability": "nonpayable",
      "type": "function"
    },
    {
      "inputs": [
        {
          "internalType": "uint256",
          "name": "amount",
          "type": "uint256"
        }
      ],
      "name": "buyCredits",
      "outputs": [],
      "stateMutability": "payable",
      "type": "function",
      "payable": true
    },
    {
      "inputs": [
        {
          "internalType": "uint256",
          "name": "newsId",
          "type": "uint256"
        }
      ],
      "name": "voteNews",
      "outputs": [],
      "stateMutability": "nonpayable",
      "type": "function"
    },
    {
      "inputs": [],
      "name": "getTop10News",
      "outputs": [
        {
          "components": [
            {
              "internalType": "string",
              "name": "title",
              "type": "string"
            },
            {
              "internalType": "string",
              "name": "description",
              "type": "string"
            },
            {
              "internalType": "string",
              "name": "link",
              "type": "string"
            },
            {
              "internalType": "address",
              "name": "publisher",
              "type": "address"
            },
            {
              "internalType": "uint256",
              "name": "timestamp",
              "type": "uint256"
            },
            {
              "internalType": "uint256",
              "name": "votes",
              "type": "uint256"
            }
          ],
          "internalType": "struct Test.News[]",
          "name": "",
          "type": "tuple[]"
        },
        {
          "internalType": "uint256[]",
          "name": "",
          "type": "uint256[]"
        }
      ],
      "stateMutability": "view",
      "type": "function",
      "constant": true
    }
  ],
  "bytecode": "0x6080604052600160055534801561001557600080fd5b50611dd7806100256000396000f3fe6080604052600436106100915760003560e01c806393e025ad1161005957806393e025ad146101835780639981d6d3146101ac578063a74dcd48146101d7578063d228f55314610219578063fe5ff4681461024257610091565b80630c4dfe3f146100965780633fe2e324146100b257806343859632146100de57806367eeba0c1461011b5780636c70679b14610146575b600080fd5b6100b060048036038101906100ab919061158b565b61027f565b005b3480156100be57600080fd5b506100c76102d8565b6040516100d5929190611903565b60405180910390f35b3480156100ea57600080fd5b50610105600480360381019061010091906115b4565b610c4f565b604051610112919061193a565b60405180910390f35b34801561012757600080fd5b50610130610c7e565b60405161013d9190611a2b565b60405180910390f35b34801561015257600080fd5b5061016d600480360381019061016891906114cb565b610c84565b60405161017a9190611a2b565b60405180910390f35b34801561018f57600080fd5b506101aa60048036038101906101a5919061158b565b610c9c565b005b3480156101b857600080fd5b506101c1610e17565b6040516101ce9190611a2b565b60405180910390f35b3480156101e357600080fd5b506101fe60048036038101906101f9919061158b565b610e1d565b60405161021096959493929190611955565b60405180910390f35b34801561022557600080fd5b50610240600480360381019061023b91906114f4565b611011565b005b34801561024e57600080fd5b50610269600480360381019061026491906114cb565b611332565b6040516102769190611a2b565b60405180910390f35b80600160003373ffffffffffffffffffffffffffffffffffffffff1673ffffffffffffffffffffffffffffffffffffffff16815260200190815260200160002060008282546102ce9190611b46565b9250508190555050565b606080600060045467ffffffffffffffff81111561031f577f4e487b7100000000000000000000000000000000000000000000000000000000600052604160045260246000fd5b60405190808252806020026020018201604052801561035857816020015b61034561134a565b81526020019060019003908161033d5790505b509050600060045467ffffffffffffffff81111561039f577f4e487b7100000000000000000000000000000000000000000000000000000000600052604160045260246000fd5b6040519080825280602002602001820160405280156103cd5781602001602082028036833780820191505090505b50905060005b6004548110156106b7576000808281526020019081526020016000206040518060c001604052908160008201805461040a90611c5a565b80601f016020809104026020016040519081016040528092919081815260200182805461043690611c5a565b80156104835780601f1061045857610100808354040283529160200191610483565b820191906000526020600020905b81548152906001019060200180831161046657829003601f168201915b5050505050815260200160018201805461049c90611c5a565b80601f01602080910402602001604051908101604052809291908181526020018280546104c890611c5a565b80156105155780601f106104ea57610100808354040283529160200191610515565b820191906000526020600020905b8154815290600101906020018083116104f857829003601f168201915b5050505050815260200160028201805461052e90611c5a565b80601f016020809104026020016040519081016040528092919081815260200182805461055a90611c5a565b80156105a75780601f1061057c576101008083540402835291602001916105a7565b820191906000526020600020905b81548152906001019060200180831161058a57829003601f168201915b505050505081526020016003820160009054906101000a900473ffffffffffffffffffffffffffffffffffffffff1673ffffffffffffffffffffffffffffffffffffffff1673ffffffffffffffffffffffffffffffffffffffff16815260200160048201548152602001600582015481525050838281518110610653577f4e487b7100000000000000000000000000000000000000000000000000000000600052603260045260246000fd5b602002602001018190525080828281518110610698577f4e487b7100000000000000000000000000000000000000000000000000000000600052603260045260246000fd5b60200260200101818152505080806106af90611c8c565b9150506103d3565b5060005b60016004546106ca9190611b9c565b811015610a0b5760005b6001826004546106e49190611b9c565b6106ee9190611b9c565b8110156109f757836001826107039190611b46565b8151811061073a577f4e487b7100000000000000000000000000000000000000000000000000000000600052603260045260246000fd5b602002602001015160a0015184828151811061077f577f4e487b7100000000000000000000000000000000000000000000000000000000600052603260045260246000fd5b602002602001015160a0015110156109e45760008482815181106107cc577f4e487b7100000000000000000000000000000000000000000000000000000000600052603260045260246000fd5b60200260200101519050846001836107e49190611b46565b8151811061081b577f4e487b7100000000000000000000000000000000000000000000000000000000600052603260045260246000fd5b602002602001015185838151811061085c577f4e487b7100000000000000000000000000000000000000000000000000000000600052603260045260246000fd5b602002602001018190525080856001846108769190611b46565b815181106108ad577f4e487b7100000000000000000000000000000000000000000000000000000000600052603260045260246000fd5b602002602001018190525060008483815181106108f3577f4e487b7100000000000000000000000000000000000000000000000000000000600052603260045260246000fd5b602002602001015190508460018461090b9190611b46565b81518110610942577f4e487b7100000000000000000000000000000000000000000000000000000000600052603260045260246000fd5b6020026020010151858481518110610983577f4e487b7100000000000000000000000000000000000000000000000000000000600052603260045260246000fd5b602002602001018181525050808560018561099e9190611b46565b815181106109d5577f4e487b7100000000000000000000000000000000000000000000000000000000600052603260045260246000fd5b60200260200101818152505050505b80806109ef90611c8c565b9150506106d4565b508080610a0390611c8c565b9150506106bb565b506000600a60045410610a1f57600a610a23565b6004545b905060008167ffffffffffffffff811115610a67577f4e487b7100000000000000000000000000000000000000000000000000000000600052604160045260246000fd5b604051908082528060200260200182016040528015610aa057816020015b610a8d61134a565b815260200190600190039081610a855790505b50905060008267ffffffffffffffff811115610ae5577f4e487b7100000000000000000000000000000000000000000000000000000000600052604160045260246000fd5b604051908082528060200260200182016040528015610b135781602001602082028036833780820191505090505b50905060005b83811015610c3f57858181518110610b5a577f4e487b7100000000000000000000000000000000000000000000000000000000600052603260045260246000fd5b6020026020010151838281518110610b9b577f4e487b7100000000000000000000000000000000000000000000000000000000600052603260045260246000fd5b6020026020010181905250848181518110610bdf577f4e487b7100000000000000000000000000000000000000000000000000000000600052603260045260246000fd5b6020026020010151828281518110610c20577f4e487b7100000000000000000000000000000000000000000000000000000000600052603260045260246000fd5b6020026020010181815250508080610c3790611c8c565b915050610b19565b5081819650965050505050509091565b60036020528160005260406000206020528060005260406000206000915091509054906101000a900460ff1681565b60055481565b60026020528060005260406000206000915090505481565b6004548110610ce0576040517f08c379a0000000000000000000000000000000000000000000000000000000008152600401610cd7906119eb565b60405180910390fd5b6003600082815260200190815260200160002060003373ffffffffffffffffffffffffffffffffffffffff1673ffffffffffffffffffffffffffffffffffffffff16815260200190815260200160002060009054906101000a900460ff1615610d7e576040517f08c379a0000000000000000000000000000000000000000000000000000000008152600401610d7590611a0b565b60405180910390fd5b60016000808381526020019081526020016000206005016000828254610da49190611b46565b9250508190555060016003600083815260200190815260200160002060003373ffffffffffffffffffffffffffffffffffffffff1673ffffffffffffffffffffffffffffffffffffffff16815260200190815260200160002060006101000a81548160ff02191690831515021790555050565b60045481565b6000602052806000526040600020600091509050806000018054610e4090611c5a565b80601f0160208091040260200160405190810160405280929190818152602001828054610e6c90611c5a565b8015610eb95780601f10610e8e57610100808354040283529160200191610eb9565b820191906000526020600020905b815481529060010190602001808311610e9c57829003601f168201915b505050505090806001018054610ece90611c5a565b80601f0160208091040260200160405190810160405280929190818152602001828054610efa90611c5a565b8015610f475780601f10610f1c57610100808354040283529160200191610f47565b820191906000526020600020905b815481529060010190602001808311610f2a57829003601f168201915b505050505090806002018054610f5c90611c5a565b80601f0160208091040260200160405190810160405280929190818152602001828054610f8890611c5a565b8015610fd55780601f10610faa57610100808354040283529160200191610fd5565b820191906000526020600020905b815481529060010190602001808311610fb857829003601f168201915b5050505050908060030160009054906101000a900473ffffffffffffffffffffffffffffffffffffffff16908060040154908060050154905086565b6000600160003373ffffffffffffffffffffffffffffffffffffffff1673ffffffffffffffffffffffffffffffffffffffff1681526020019081526020016000205414801561109f57506000600260003373ffffffffffffffffffffffffffffffffffffffff1673ffffffffffffffffffffffffffffffffffffffff16815260200190815260200160002054145b156110ea576005600160003373ffffffffffffffffffffffffffffffffffffffff1673ffffffffffffffffffffffffffffffffffffffff168152602001908152602001600020819055505b6000600160003373ffffffffffffffffffffffffffffffffffffffff1673ffffffffffffffffffffffffffffffffffffffff168152602001908152602001600020541161116c576040517f08c379a0000000000000000000000000000000000000000000000000000000008152600401611163906119cb565b60405180910390fd5b6040518060c001604052808481526020018381526020018281526020013373ffffffffffffffffffffffffffffffffffffffff1681526020014281526020016000815250600080600454815260200190815260200160002060008201518160000190805190602001906111e0929190611396565b5060208201518160010190805190602001906111fd929190611396565b50604082015181600201908051906020019061121a929190611396565b5060608201518160030160006101000a81548173ffffffffffffffffffffffffffffffffffffffff021916908373ffffffffffffffffffffffffffffffffffffffff1602179055506080820151816004015560a0820151816005015590505042600260003373ffffffffffffffffffffffffffffffffffffffff1673ffffffffffffffffffffffffffffffffffffffff1681526020019081526020016000208190555060018060003373ffffffffffffffffffffffffffffffffffffffff1673ffffffffffffffffffffffffffffffffffffffff168152602001908152602001600020600082825461130c9190611b9c565b925050819055506001600460008282546113269190611b46565b92505081905550505050565b60016020528060005260406000206000915090505481565b6040518060c00160405280606081526020016060815260200160608152602001600073ffffffffffffffffffffffffffffffffffffffff16815260200160008152602001600081525090565b8280546113a290611c5a565b90600052602060002090601f0160209004810192826113c4576000855561140b565b82601f106113dd57805160ff191683800117855561140b565b8280016001018555821561140b579182015b8281111561140a5782518255916020019190600101906113ef565b5b509050611418919061141c565b5090565b5b8082111561143557600081600090555060010161141d565b5090565b600061144c61144784611a77565b611a46565b90508281526020810184848401111561146457600080fd5b61146f848285611c18565b509392505050565b60008135905061148681611d73565b92915050565b600082601f83011261149d57600080fd5b81356114ad848260208601611439565b91505092915050565b6000813590506114c581611d8a565b92915050565b6000602082840312156114dd57600080fd5b60006114eb84828501611477565b91505092915050565b60008060006060848603121561150957600080fd5b600084013567ffffffffffffffff81111561152357600080fd5b61152f8682870161148c565b935050602084013567ffffffffffffffff81111561154c57600080fd5b6115588682870161148c565b925050604084013567ffffffffffffffff81111561157557600080fd5b6115818682870161148c565b9150509250925092565b60006020828403121561159d57600080fd5b60006115ab848285016114b6565b91505092915050565b600080604083850312156115c757600080fd5b60006115d5858286016114b6565b92505060206115e685828601611477565b9150509250929050565b60006115fc838361184e565b905092915050565b600061161083836118e5565b60208301905092915050565b61162581611bd0565b82525050565b61163481611bd0565b82525050565b600061164582611ac7565b61164f8185611b02565b93508360208202850161166185611aa7565b8060005b8581101561169d578484038952815161167e85826115f0565b945061168983611ae8565b925060208a01995050600181019050611665565b50829750879550505050505092915050565b60006116ba82611ad2565b6116c48185611b13565b93506116cf83611ab7565b8060005b838110156117005781516116e78882611604565b97506116f283611af5565b9250506001810190506116d3565b5085935050505092915050565b61171681611be2565b82525050565b600061172782611add565b6117318185611b24565b9350611741818560208601611c27565b61174a81611d62565b840191505092915050565b600061176082611add565b61176a8185611b35565b935061177a818560208601611c27565b61178381611d62565b840191505092915050565b600061179b601483611b35565b91507f496e73756666696369656e7420637265646974730000000000000000000000006000830152602082019050919050565b60006117db600f83611b35565b91507f496e76616c6964206e65777320494400000000000000000000000000000000006000830152602082019050919050565b600061181b600d83611b35565b91507f416c726561647920766f746564000000000000000000000000000000000000006000830152602082019050919050565b600060c083016000830151848203600086015261186b828261171c565b91505060208301518482036020860152611885828261171c565b9150506040830151848203604086015261189f828261171c565b91505060608301516118b4606086018261161c565b5060808301516118c760808601826118e5565b5060a08301516118da60a08601826118e5565b508091505092915050565b6118ee81611c0e565b82525050565b6118fd81611c0e565b82525050565b6000604082019050818103600083015261191d818561163a565b9050818103602083015261193181846116af565b90509392505050565b600060208201905061194f600083018461170d565b92915050565b600060c082019050818103600083015261196f8189611755565b905081810360208301526119838188611755565b905081810360408301526119978187611755565b90506119a6606083018661162b565b6119b360808301856118f4565b6119c060a08301846118f4565b979650505050505050565b600060208201905081810360008301526119e48161178e565b9050919050565b60006020820190508181036000830152611a04816117ce565b9050919050565b60006020820190508181036000830152611a248161180e565b9050919050565b6000602082019050611a4060008301846118f4565b92915050565b6000604051905081810181811067ffffffffffffffff82111715611a6d57611a6c611d33565b5b8060405250919050565b600067ffffffffffffffff821115611a9257611a91611d33565b5b601f19601f8301169050602081019050919050565b6000819050602082019050919050565b6000819050602082019050919050565b600081519050919050565b600081519050919050565b600081519050919050565b6000602082019050919050565b6000602082019050919050565b600082825260208201905092915050565b600082825260208201905092915050565b600082825260208201905092915050565b600082825260208201905092915050565b6000611b5182611c0e565b9150611b5c83611c0e565b9250827fffffffffffffffffffffffffffffffffffffffffffffffffffffffffffffffff03821115611b9157611b90611cd5565b5b828201905092915050565b6000611ba782611c0e565b9150611bb283611c0e565b925082821015611bc557611bc4611cd5565b5b828203905092915050565b6000611bdb82611bee565b9050919050565b60008115159050919050565b600073ffffffffffffffffffffffffffffffffffffffff82169050919050565b6000819050919050565b82818337600083830152505050565b60005b83811015611c45578082015181840152602081019050611c2a565b83811115611c54576000848401525b50505050565b60006002820490506001821680611c7257607f821691505b60208210811415611c8657611c85611d04565b5b50919050565b6000611c9782611c0e565b91507fffffffffffffffffffffffffffffffffffffffffffffffffffffffffffffffff821415611cca57611cc9611cd5565b5b600182019050919050565b7f4e487b7100000000000000000000000000000000000000000000000000000000600052601160045260246000fd5b7f4e487b7100000000000000000000000000000000000000000000000000000000600052602260045260246000fd5b7f4e487b7100000000000000000000000000000000000000000000000000000000600052604160045260246000fd5b6000601f19601f8301169050919050565b611d7c81611bd0565b8114611d8757600080fd5b50565b611d9381611c0e565b8114611d9e57600080fd5b5056fea2646970667358221220af28d2fd8f92febf3f5ebf03198250fc5e7ddb935121da562894160f978e740d64736f6c63430008000033",
  "immutableReferences": {},
  "source": "// SPDX-License-Identifier: MIT\npragma solidity ^0.8.0;\ncontract Test{\n    struct News {\n        string title;\n        string description;\n        string link;\n        address publisher;\n        uint256 timestamp;\n        uint256 votes; // New field to store votes\n    }\n\n    mapping(uint256 => News) public newsRegistry;\n    mapping(address => uint256) public credits;\n    mapping(address => uint256) public lastSubmission;\n    mapping(uint256 => mapping(address => bool)) public hasVoted; // Tracks if an address has voted on a specific news item\n\n    uint256 public newsCount;\n    uint256 public dailyLimit = 1;\n\n \n    function submitNews(string memory _title, string memory _description, string memory _link) public {\n\n        // Check if the user is new and initialize credits if they are\n        if (credits[msg.sender] == 0 && lastSubmission[msg.sender] == 0) {\n            credits[msg.sender] = 5;\n        }\n        \n        require(credits[msg.sender] > 0, \"Insufficient credits\");\n        // require(block.timestamp - lastSubmission[msg.sender] > 1 days, \"Daily submission limit reached\");\n\n        newsRegistry[newsCount] = News({\n            title: _title,\n            description: _description,\n            link: _link,\n            publisher: msg.sender, // msg.sender -> address of the publisher this using ens to get the address of the publisher\n            timestamp: block.timestamp,\n            votes: 0 // Initialize votes to 0\n        });\n\n        lastSubmission[msg.sender] = block.timestamp;\n        credits[msg.sender] -= 1;\n        newsCount += 1;\n    }\n\n    function buyCredits(uint256 amount) public payable {\n        // Implement credit purchasing logic\n        credits[msg.sender] += amount;\n    }\n\n    function voteNews(uint256 newsId) public {\n        require(newsId < newsCount, \"Invalid news ID\");\n        require(!hasVoted[newsId][msg.sender], \"Already voted\");\n\n        newsRegistry[newsId].votes += 1;\n        hasVoted[newsId][msg.sender] = true;\n    }\n\n    // function getMostImportantNews() public view returns (News memory) {\n    //     uint256 maxVotes = 0;\n    //     uint256 mostImportantNewsId = 0;\n\n    //     for (uint256 i = 0; i < newsCount; i++) {\n    //         if (newsRegistry[i].votes > maxVotes) {\n    //             maxVotes = newsRegistry[i].votes;\n    //             mostImportantNewsId = i;\n    //         }\n    //     }\n\n    //     return newsRegistry[mostImportantNewsId];\n    // }\n\n    function getTop10News() public view returns (News[] memory, uint256[] memory) {\n        News[] memory sortedNews = new News[](newsCount);\n        uint256[] memory sortedNewsIds = new uint256[](newsCount);\n        \n        // Copy news items and their IDs to temporary arrays for sorting\n        for (uint256 i = 0; i < newsCount; i++) {\n            sortedNews[i] = newsRegistry[i];\n            sortedNewsIds[i] = i;\n        }\n\n        // Sort news by votes using a simple bubble sort\n        for (uint256 i = 0; i < newsCount - 1; i++) {\n            for (uint256 j = 0; j < newsCount - i - 1; j++) {\n                if (sortedNews[j].votes < sortedNews[j + 1].votes) {\n                    // Swap news items\n                    News memory tempNews = sortedNews[j];\n                    sortedNews[j] = sortedNews[j + 1];\n                    sortedNews[j + 1] = tempNews;\n\n                    // Swap their IDs\n                    uint256 tempId = sortedNewsIds[j];\n                    sortedNewsIds[j] = sortedNewsIds[j + 1];\n                    sortedNewsIds[j + 1] = tempId;\n                }\n            }\n        }\n\n        // Create arrays for the top 10 news items and their IDs\n        uint256 topCount = newsCount < 10 ? newsCount : 10;\n        News[] memory top10News = new News[](topCount);\n        uint256[] memory top10NewsIds = new uint256[](topCount);\n\n        for (uint256 i = 0; i < topCount; i++) {\n            top10News[i] = sortedNews[i];\n            top10NewsIds[i] = sortedNewsIds[i];\n        }\n\n        return (top10News, top10NewsIds);\n    }\n}",
  "sourcePath": "/home/ever/Documents/HackathonBlockChain2024Latina/hola-dapp/contracts/Test.sol",
  "compiler": {
    "name": "solc",
    "version": "0.8.0+commit.c7dfd78e.Emscripten.clang"
  },
  "schemaVersion": "3.4.16",
  "updatedAt": "2024-05-17T06:22:30.989Z",
  "networkType": "ethereum",
  "devdoc": {
    "kind": "dev",
    "methods": {},
    "version": 1
  },
  "userdoc": {
    "kind": "user",
    "methods": {},
    "version": 1
  }
}